{
  "contractName": "CampaignFactory",
  "abi": [
    {
      "constant": false,
      "inputs": [],
      "name": "deleteUser",
      "outputs": [
        {
          "name": "success",
          "type": "bool"
        }
      ],
      "payable": false,
      "stateMutability": "nonpayable",
      "type": "function"
    },
    {
      "constant": true,
      "inputs": [
        {
          "name": "userAddress",
          "type": "address"
        }
      ],
      "name": "getUserPhoneNo",
      "outputs": [
        {
          "name": "",
          "type": "bytes32"
        }
      ],
      "payable": false,
      "stateMutability": "view",
      "type": "function"
    },
    {
      "constant": false,
      "inputs": [
        {
          "name": "_avatarIpfsHash",
          "type": "bytes32"
        }
      ],
      "name": "updateUserAvatar",
      "outputs": [
        {
          "name": "success",
          "type": "bool"
        }
      ],
      "payable": false,
      "stateMutability": "nonpayable",
      "type": "function"
    },
    {
      "constant": false,
      "inputs": [
        {
          "name": "_userPhoneNo",
          "type": "bytes32"
        }
      ],
      "name": "updateUserPhoneNo",
      "outputs": [
        {
          "name": "success",
          "type": "bool"
        }
      ],
      "payable": false,
      "stateMutability": "nonpayable",
      "type": "function"
    },
    {
      "constant": false,
      "inputs": [],
      "name": "unpause",
      "outputs": [],
      "payable": false,
      "stateMutability": "nonpayable",
      "type": "function"
    },
    {
      "constant": true,
      "inputs": [],
      "name": "userLogin",
      "outputs": [
        {
          "name": "",
          "type": "bytes32"
        }
      ],
      "payable": false,
      "stateMutability": "view",
      "type": "function"
    },
    {
      "constant": false,
      "inputs": [
        {
          "name": "_newName",
          "type": "bytes32"
        },
        {
          "name": "_newEmail",
          "type": "bytes32"
        },
        {
          "name": "_newPhoneNo",
          "type": "bytes32"
        }
      ],
      "name": "userUpdate",
      "outputs": [
        {
          "name": "success",
          "type": "bool"
        }
      ],
      "payable": false,
      "stateMutability": "nonpayable",
      "type": "function"
    },
    {
      "constant": true,
      "inputs": [],
      "name": "paused",
      "outputs": [
        {
          "name": "",
          "type": "bool"
        }
      ],
      "payable": false,
      "stateMutability": "view",
      "type": "function"
    },
    {
      "constant": false,
      "inputs": [
        {
          "name": "_userName",
          "type": "bytes32"
        },
        {
          "name": "_userEmail",
          "type": "bytes32"
        },
        {
          "name": "_userPhoneNo",
          "type": "bytes32"
        },
        {
          "name": "_avatarIpfsHash",
          "type": "bytes32"
        }
      ],
      "name": "userSignup",
      "outputs": [
        {
          "name": "success",
          "type": "bool"
        }
      ],
      "payable": false,
      "stateMutability": "nonpayable",
      "type": "function"
    },
    {
      "constant": true,
      "inputs": [],
      "name": "getUserIndex",
      "outputs": [
        {
          "name": "",
          "type": "uint256"
        }
      ],
      "payable": false,
      "stateMutability": "view",
      "type": "function"
    },
    {
      "constant": false,
      "inputs": [],
      "name": "pause",
      "outputs": [],
      "payable": false,
      "stateMutability": "nonpayable",
      "type": "function"
    },
    {
      "constant": true,
      "inputs": [],
      "name": "owner",
      "outputs": [
        {
          "name": "",
          "type": "address"
        }
      ],
      "payable": false,
      "stateMutability": "view",
      "type": "function"
    },
    {
      "constant": true,
      "inputs": [
        {
          "name": "userAddress",
          "type": "address"
        }
      ],
      "name": "getUserSummary",
      "outputs": [
        {
          "name": "",
          "type": "bytes32"
        },
        {
          "name": "",
          "type": "bytes32"
        },
        {
          "name": "",
          "type": "bytes32"
        },
        {
          "name": "",
          "type": "bytes32"
        },
        {
          "name": "",
          "type": "uint256"
        }
      ],
      "payable": false,
      "stateMutability": "view",
      "type": "function"
    },
    {
      "constant": true,
      "inputs": [
        {
          "name": "userAddress",
          "type": "address"
        }
      ],
      "name": "getUserEmail",
      "outputs": [
        {
          "name": "",
          "type": "bytes32"
        }
      ],
      "payable": false,
      "stateMutability": "view",
      "type": "function"
    },
    {
      "constant": true,
      "inputs": [
        {
          "name": "index",
          "type": "uint256"
        }
      ],
      "name": "getUserAddressAtIndex",
      "outputs": [
        {
          "name": "",
          "type": "address"
        }
      ],
      "payable": false,
      "stateMutability": "view",
      "type": "function"
    },
    {
      "constant": false,
      "inputs": [
        {
          "name": "_userEmail",
          "type": "bytes32"
        }
      ],
      "name": "updateUserEmail",
      "outputs": [
        {
          "name": "success",
          "type": "bool"
        }
      ],
      "payable": false,
      "stateMutability": "nonpayable",
      "type": "function"
    },
    {
      "constant": true,
      "inputs": [],
      "name": "getUserCount",
      "outputs": [
        {
          "name": "",
          "type": "uint256"
        }
      ],
      "payable": false,
      "stateMutability": "view",
      "type": "function"
    },
    {
      "constant": true,
      "inputs": [
        {
          "name": "userAddress",
          "type": "address"
        }
      ],
      "name": "getUserName",
      "outputs": [
        {
          "name": "",
          "type": "bytes32"
        }
      ],
      "payable": false,
      "stateMutability": "view",
      "type": "function"
    },
    {
      "constant": false,
      "inputs": [
        {
          "name": "_userName",
          "type": "bytes32"
        }
      ],
      "name": "updateUserName",
      "outputs": [
        {
          "name": "success",
          "type": "bool"
        }
      ],
      "payable": false,
      "stateMutability": "nonpayable",
      "type": "function"
    },
    {
      "constant": false,
      "inputs": [
        {
          "name": "newOwner",
          "type": "address"
        }
      ],
      "name": "transferOwnership",
      "outputs": [],
      "payable": false,
      "stateMutability": "nonpayable",
      "type": "function"
    },
    {
      "constant": true,
      "inputs": [
        {
          "name": "userAddress",
          "type": "address"
        }
      ],
      "name": "getUserAvatar",
      "outputs": [
        {
          "name": "",
          "type": "bytes32"
        }
      ],
      "payable": false,
      "stateMutability": "view",
      "type": "function"
    },
    {
      "inputs": [
        {
          "name": "_campaignMasterCopy",
          "type": "address"
        }
      ],
      "payable": false,
      "stateMutability": "nonpayable",
      "type": "constructor"
    },
    {
      "anonymous": false,
      "inputs": [
        {
          "indexed": false,
          "name": "creator",
          "type": "address"
        },
        {
          "indexed": false,
          "name": "_deliverytime",
          "type": "uint256"
        },
        {
          "indexed": false,
          "name": "newCampaignProxyAddr",
          "type": "address"
        },
        {
          "indexed": false,
          "name": "quantity",
          "type": "uint256"
        }
      ],
      "name": "CampaignCreation",
      "type": "event"
    },
    {
      "anonymous": false,
      "inputs": [
        {
          "indexed": true,
          "name": "contractOwner",
          "type": "address"
        },
        {
          "indexed": false,
          "name": "time",
          "type": "uint256"
        }
      ],
      "name": "ContractUpdatedInFactory",
      "type": "event"
    },
    {
      "anonymous": false,
      "inputs": [
        {
          "indexed": true,
          "name": "userAddress",
          "type": "address"
        },
        {
          "indexed": false,
          "name": "userName",
          "type": "bytes32"
        },
        {
          "indexed": false,
          "name": "userEmail",
          "type": "bytes32"
        },
        {
          "indexed": false,
          "name": "index",
          "type": "uint256"
        }
      ],
      "name": "LogNewUser",
      "type": "event"
    },
    {
      "anonymous": false,
      "inputs": [
        {
          "indexed": true,
          "name": "userAddress",
          "type": "address"
        },
        {
          "indexed": false,
          "name": "userName",
          "type": "bytes32"
        },
        {
          "indexed": false,
          "name": "userEmail",
          "type": "bytes32"
        },
        {
          "indexed": false,
          "name": "index",
          "type": "uint256"
        }
      ],
      "name": "LogUpdateUser",
      "type": "event"
    },
    {
      "anonymous": false,
      "inputs": [
        {
          "indexed": true,
          "name": "userAddress",
          "type": "address"
        },
        {
          "indexed": false,
          "name": "index",
          "type": "uint256"
        }
      ],
      "name": "LogDeleteUser",
      "type": "event"
    },
    {
      "anonymous": false,
      "inputs": [],
      "name": "Pause",
      "type": "event"
    },
    {
      "anonymous": false,
      "inputs": [],
      "name": "Unpause",
      "type": "event"
    },
    {
      "anonymous": false,
      "inputs": [
        {
          "indexed": true,
          "name": "previousOwner",
          "type": "address"
        },
        {
          "indexed": true,
          "name": "newOwner",
          "type": "address"
        }
      ],
      "name": "OwnershipTransferred",
      "type": "event"
    },
    {
      "constant": false,
      "inputs": [
        {
          "name": "_requesterName",
          "type": "string"
        },
        {
          "name": "_quantity",
          "type": "uint256"
        },
        {
          "name": "_deliverytime",
          "type": "uint256"
        },
        {
          "name": "_deliveryPointContactNo",
          "type": "string"
        },
        {
          "name": "_locationAddr",
          "type": "string"
        }
      ],
      "name": "foodForAllCreateNewCampaign",
      "outputs": [],
      "payable": false,
      "stateMutability": "nonpayable",
      "type": "function"
    },
    {
      "constant": false,
      "inputs": [
        {
          "name": "_campaignMasterCopy",
          "type": "address"
        }
      ],
      "name": "updateMasterContractCopy",
      "outputs": [],
      "payable": false,
      "stateMutability": "nonpayable",
      "type": "function"
    },
    {
      "constant": true,
      "inputs": [],
      "name": "getAllDeployedFoodCampaigns",
      "outputs": [
        {
          "name": "",
          "type": "address[]"
        }
      ],
      "payable": false,
      "stateMutability": "view",
      "type": "function"
    },
    {
      "constant": true,
      "inputs": [
        {
          "name": "index",
          "type": "uint256"
        }
      ],
      "name": "getDeployedFoodCampaignWithIndex",
      "outputs": [
        {
          "name": "",
          "type": "address"
        }
      ],
      "payable": false,
      "stateMutability": "view",
      "type": "function"
    },
    {
      "constant": true,
      "inputs": [],
      "name": "getTotalDeployedFoodCampaigns",
      "outputs": [
        {
          "name": "totalDeployedCampaigns",
          "type": "uint256"
        }
      ],
      "payable": false,
      "stateMutability": "view",
      "type": "function"
    }
  ],
  "bytecode": "0x608060405260008060146101000a81548160ff02191690831515021790555034801561002a57600080fd5b506040516020806200414f83398101806040528101908080519060200190929190505050336000806101000a81548173ffffffffffffffffffffffffffffffffffffffff021916908373ffffffffffffffffffffffffffffffffffffffff1602179055506000809054906101000a900473ffffffffffffffffffffffffffffffffffffffff1673ffffffffffffffffffffffffffffffffffffffff163373ffffffffffffffffffffffffffffffffffffffff161415156100e957600080fd5b600060149054906101000a900460ff1615151561010557600080fd5b80600360006101000a81548173ffffffffffffffffffffffffffffffffffffffff021916908373ffffffffffffffffffffffffffffffffffffffff16021790555050613ff880620001576000396000f3006080604052600436106200016f576000357c0100000000000000000000000000000000000000000000000000000000900463ffffffff168063026ff05e14620001745780630907f1d014620001a6578063235a798e14620002085780632bb2fe4d14620002545780633f4ba83a14620002a05780634790a62d14620002ba578063563560f414620002f05780635c975abb146200035857806367bcf64d146200038a5780636ec0c8aa14620004005780638456cb59146200042e5780638da5cb5b14620004485780638fbd0c2d14620004a25780639480e94814620005385780639eaa2b4b146200059a578063a65cbcfc146200060a578063b5cb15f71462000656578063b927640e1462000684578063c7dc06961462000790578063d84f55ee14620007be578063d9b05f541462000820578063e22eabcb146200086c578063e9c1117b14620008dc578063f2fde38b1462000922578063f504c8f91462000968578063fd778d2c14620009ca575b600080fd5b3480156200018157600080fd5b506200018c62000a3b565b604051808215151515815260200191505060405180910390f35b348015620001b357600080fd5b50620001ea600480360381019080803573ffffffffffffffffffffffffffffffffffffffff16906020019092919050505062000d79565b60405180826000191660001916815260200191505060405180910390f35b3480156200021557600080fd5b506200023a600480360381019080803560001916906020019092919050505062000f63565b604051808215151515815260200191505060405180910390f35b3480156200026157600080fd5b50620002866004803603810190808035600019169060200190929190505050620011f5565b604051808215151515815260200191505060405180910390f35b348015620002ad57600080fd5b50620002b862001487565b005b348015620002c757600080fd5b50620002d262001547565b60405180826000191660001916815260200191505060405180910390f35b348015620002fd57600080fd5b506200033e6004803603810190808035600019169060200190929190803560001916906020019092919080356000191690602001909291905050506200172f565b604051808215151515815260200191505060405180910390f35b3480156200036557600080fd5b506200037062001b09565b604051808215151515815260200191505060405180910390f35b3480156200039757600080fd5b50620003e6600480360381019080803560001916906020019092919080356000191690602001909291908035600019169060200190929190803560001916906020019092919050505062001b1c565b604051808215151515815260200191505060405180910390f35b3480156200040d57600080fd5b506200041862001f13565b6040518082815260200191505060405180910390f35b3480156200043b57600080fd5b5062000446620020fb565b005b3480156200045557600080fd5b5062000460620021bd565b604051808273ffffffffffffffffffffffffffffffffffffffff1673ffffffffffffffffffffffffffffffffffffffff16815260200191505060405180910390f35b348015620004af57600080fd5b50620004e6600480360381019080803573ffffffffffffffffffffffffffffffffffffffff169060200190929190505050620021e2565b6040518086600019166000191681526020018560001916600019168152602001846000191660001916815260200183600019166000191681526020018281526020019550505050505060405180910390f35b3480156200054557600080fd5b506200057c600480360381019080803573ffffffffffffffffffffffffffffffffffffffff169060200190929190505050620024ea565b60405180826000191660001916815260200191505060405180910390f35b348015620005a757600080fd5b50620005c860048036038101908080359060200190929190505050620026d4565b604051808273ffffffffffffffffffffffffffffffffffffffff1673ffffffffffffffffffffffffffffffffffffffff16815260200191505060405180910390f35b3480156200061757600080fd5b506200063c6004803603810190808035600019169060200190929190505050620028b6565b604051808215151515815260200191505060405180910390f35b3480156200066357600080fd5b506200066e62002b48565b6040518082815260200191505060405180910390f35b3480156200069157600080fd5b506200078e600480360381019080803590602001908201803590602001908080601f01602080910402602001604051908101604052809392919081815260200183838082843782019150505050505091929192908035906020019092919080359060200190929190803590602001908201803590602001908080601f0160208091040260200160405190810160405280939291908181526020018383808284378201915050505050509192919290803590602001908201803590602001908080601f016020809104026020016040519081016040528093929190818152602001838380828437820191505050505050919291929050505062002b55565b005b3480156200079d57600080fd5b50620007a862002f0a565b6040518082815260200191505060405180910390f35b348015620007cb57600080fd5b5062000802600480360381019080803573ffffffffffffffffffffffffffffffffffffffff16906020019092919050505062002f17565b60405180826000191660001916815260200191505060405180910390f35b3480156200082d57600080fd5b5062000852600480360381019080803560001916906020019092919050505062003101565b604051808215151515815260200191505060405180910390f35b3480156200087957600080fd5b506200089a6004803603810190808035906020019092919050505062003393565b604051808273ffffffffffffffffffffffffffffffffffffffff1673ffffffffffffffffffffffffffffffffffffffff16815260200191505060405180910390f35b348015620008e957600080fd5b5062000920600480360381019080803573ffffffffffffffffffffffffffffffffffffffff169060200190929190505050620033d7565b005b3480156200092f57600080fd5b5062000966600480360381019080803573ffffffffffffffffffffffffffffffffffffffff169060200190929190505050620034e2565b005b3480156200097557600080fd5b50620009ac600480360381019080803573ffffffffffffffffffffffffffffffffffffffff16906020019092919050505062003639565b60405180826000191660001916815260200191505060405180910390f35b348015620009d757600080fd5b50620009e262003823565b6040518080602001828103825283818151815260200191508051906020019060200280838360005b8381101562000a2757808201518184015260208101905062000a0a565b505050509050019250505060405180910390f35b6000806000806002805490501415151562000abe576040517f08c379a00000000000000000000000000000000000000000000000000000000081526004018080602001828103825260138152602001807f4e6f20726567697374657265642075736572730000000000000000000000000081525060200191505060405180910390fd5b3373ffffffffffffffffffffffffffffffffffffffff166002600160003373ffffffffffffffffffffffffffffffffffffffff1673ffffffffffffffffffffffffffffffffffffffff1681526020019081526020016000206004015481548110151562000b2757fe5b9060005260206000200160009054906101000a900473ffffffffffffffffffffffffffffffffffffffff1673ffffffffffffffffffffffffffffffffffffffff1614151562000bde576040517f08c379a00000000000000000000000000000000000000000000000000000000081526004018080602001828103825260118152602001807f4e6f7420612076616c696465207573657200000000000000000000000000000081525060200191505060405180910390fd5b600060149054906101000a900460ff1615151562000bfb57600080fd5b600060028054905011151562000c79576040517f08c379a00000000000000000000000000000000000000000000000000000000081526004018080602001828103825260118152602001807f696e746567657220756e646572666c6f7700000000000000000000000000000081525060200191505060405180910390fd5b600160003373ffffffffffffffffffffffffffffffffffffffff1673ffffffffffffffffffffffffffffffffffffffff168152602001908152602001600020600401549150600260016002805490500381548110151562000cd657fe5b9060005260206000200160009054906101000a900473ffffffffffffffffffffffffffffffffffffffff1690508060028381548110151562000d1457fe5b9060005260206000200160006101000a81548173ffffffffffffffffffffffffffffffffffffffff021916908373ffffffffffffffffffffffffffffffffffffffff160217905550600280548091906001900362000d739190620038b3565b50505090565b6000806002805490501415151562000df9576040517f08c379a00000000000000000000000000000000000000000000000000000000081526004018080602001828103825260138152602001807f4e6f20726567697374657265642075736572730000000000000000000000000081525060200191505060405180910390fd5b3373ffffffffffffffffffffffffffffffffffffffff166002600160003373ffffffffffffffffffffffffffffffffffffffff1673ffffffffffffffffffffffffffffffffffffffff1681526020019081526020016000206004015481548110151562000e6257fe5b9060005260206000200160009054906101000a900473ffffffffffffffffffffffffffffffffffffffff1673ffffffffffffffffffffffffffffffffffffffff1614151562000f19576040517f08c379a00000000000000000000000000000000000000000000000000000000081526004018080602001828103825260118152602001807f4e6f7420612076616c696465207573657200000000000000000000000000000081525060200191505060405180910390fd5b600160008373ffffffffffffffffffffffffffffffffffffffff1673ffffffffffffffffffffffffffffffffffffffff168152602001908152602001600020600201549050919050565b6000806002805490501415151562000fe3576040517f08c379a00000000000000000000000000000000000000000000000000000000081526004018080602001828103825260138152602001807f4e6f20726567697374657265642075736572730000000000000000000000000081525060200191505060405180910390fd5b3373ffffffffffffffffffffffffffffffffffffffff166002600160003373ffffffffffffffffffffffffffffffffffffffff1673ffffffffffffffffffffffffffffffffffffffff168152602001908152602001600020600401548154811015156200104c57fe5b9060005260206000200160009054906101000a900473ffffffffffffffffffffffffffffffffffffffff1673ffffffffffffffffffffffffffffffffffffffff1614151562001103576040517f08c379a00000000000000000000000000000000000000000000000000000000081526004018080602001828103825260118152602001807f4e6f7420612076616c696465207573657200000000000000000000000000000081525060200191505060405180910390fd5b600060149054906101000a900460ff161515156200112057600080fd5b6000600102826000191614151515620011a1576040517f08c379a00000000000000000000000000000000000000000000000000000000081526004018080602001828103825260148152602001807f4e6f7420612076616c696420697066732074616700000000000000000000000081525060200191505060405180910390fd5b81600160003373ffffffffffffffffffffffffffffffffffffffff1673ffffffffffffffffffffffffffffffffffffffff168152602001908152602001600020600301816000191690555060019050919050565b6000806002805490501415151562001275576040517f08c379a00000000000000000000000000000000000000000000000000000000081526004018080602001828103825260138152602001807f4e6f20726567697374657265642075736572730000000000000000000000000081525060200191505060405180910390fd5b3373ffffffffffffffffffffffffffffffffffffffff166002600160003373ffffffffffffffffffffffffffffffffffffffff1673ffffffffffffffffffffffffffffffffffffffff16815260200190815260200160002060040154815481101515620012de57fe5b9060005260206000200160009054906101000a900473ffffffffffffffffffffffffffffffffffffffff1673ffffffffffffffffffffffffffffffffffffffff1614151562001395576040517f08c379a00000000000000000000000000000000000000000000000000000000081526004018080602001828103825260118152602001807f4e6f7420612076616c696465207573657200000000000000000000000000000081525060200191505060405180910390fd5b600060149054906101000a900460ff16151515620013b257600080fd5b600060010282600019161415151562001433576040517f08c379a00000000000000000000000000000000000000000000000000000000081526004018080602001828103825260188152602001807f4e6f7420612076616c69642070686f6e65206e756d626572000000000000000081525060200191505060405180910390fd5b81600160003373ffffffffffffffffffffffffffffffffffffffff1673ffffffffffffffffffffffffffffffffffffffff168152602001908152602001600020600201816000191690555060019050919050565b6000809054906101000a900473ffffffffffffffffffffffffffffffffffffffff1673ffffffffffffffffffffffffffffffffffffffff163373ffffffffffffffffffffffffffffffffffffffff16141515620014e357600080fd5b600060149054906101000a900460ff161515620014ff57600080fd5b60008060146101000a81548160ff0219169083151502179055507f7805862f689e2f13df9f062ff482ad3ad112aca9e0847911ed832e158c525b3360405160405180910390a1565b60008060028054905014151515620015c7576040517f08c379a00000000000000000000000000000000000000000000000000000000081526004018080602001828103825260138152602001807f4e6f20726567697374657265642075736572730000000000000000000000000081525060200191505060405180910390fd5b3373ffffffffffffffffffffffffffffffffffffffff166002600160003373ffffffffffffffffffffffffffffffffffffffff1673ffffffffffffffffffffffffffffffffffffffff168152602001908152602001600020600401548154811015156200163057fe5b9060005260206000200160009054906101000a900473ffffffffffffffffffffffffffffffffffffffff1673ffffffffffffffffffffffffffffffffffffffff16141515620016e7576040517f08c379a00000000000000000000000000000000000000000000000000000000081526004018080602001828103825260118152602001807f4e6f7420612076616c696465207573657200000000000000000000000000000081525060200191505060405180910390fd5b600160003373ffffffffffffffffffffffffffffffffffffffff1673ffffffffffffffffffffffffffffffffffffffff16815260200190815260200160002060000154905090565b60008060028054905014151515620017af576040517f08c379a00000000000000000000000000000000000000000000000000000000081526004018080602001828103825260138152602001807f4e6f20726567697374657265642075736572730000000000000000000000000081525060200191505060405180910390fd5b3373ffffffffffffffffffffffffffffffffffffffff166002600160003373ffffffffffffffffffffffffffffffffffffffff1673ffffffffffffffffffffffffffffffffffffffff168152602001908152602001600020600401548154811015156200181857fe5b9060005260206000200160009054906101000a900473ffffffffffffffffffffffffffffffffffffffff1673ffffffffffffffffffffffffffffffffffffffff16141515620018cf576040517f08c379a00000000000000000000000000000000000000000000000000000000081526004018080602001828103825260118152602001807f4e6f7420612076616c696465207573657200000000000000000000000000000081525060200191505060405180910390fd5b600060149054906101000a900460ff16151515620018ec57600080fd5b60006001028460001916141515156200196d576040517f08c379a00000000000000000000000000000000000000000000000000000000081526004018080602001828103825260158152602001807f4e6f7420612076616c69642075736572206e616d65000000000000000000000081525060200191505060405180910390fd5b83600160003373ffffffffffffffffffffffffffffffffffffffff1673ffffffffffffffffffffffffffffffffffffffff168152602001908152602001600020600001816000191690555082600160003373ffffffffffffffffffffffffffffffffffffffff1673ffffffffffffffffffffffffffffffffffffffff168152602001908152602001600020600101816000191690555081600160003373ffffffffffffffffffffffffffffffffffffffff1673ffffffffffffffffffffffffffffffffffffffff16815260200190815260200160002060020181600019169055503373ffffffffffffffffffffffffffffffffffffffff167f8be02eae6b24fda571218acb6b426b19e7c5d8e32e353288fa7c2b97ea57323f8585600160003373ffffffffffffffffffffffffffffffffffffffff1673ffffffffffffffffffffffffffffffffffffffff168152602001908152602001600020600401546040518084600019166000191681526020018360001916600019168152602001828152602001935050505060405180910390a2600190509392505050565b600060149054906101000a900460ff1681565b600080600102600160003373ffffffffffffffffffffffffffffffffffffffff1673ffffffffffffffffffffffffffffffffffffffff168152602001908152602001600020600001546000191614151562001bdf576040517f08c379a000000000000000000000000000000000000000000000000000000000815260040180806020018281038252601a8152602001807f53686f756c64206e6f7420626520612076616c6964207573657200000000000081525060200191505060405180910390fd5b600060149054906101000a900460ff1615151562001bfc57600080fd5b600060010285600019161415151562001c7d576040517f08c379a00000000000000000000000000000000000000000000000000000000081526004018080602001828103825260158152602001807f4e6f7420612076616c69642075736572206e616d65000000000000000000000081525060200191505060405180910390fd5b84600160003373ffffffffffffffffffffffffffffffffffffffff1673ffffffffffffffffffffffffffffffffffffffff168152602001908152602001600020600001816000191690555083600160003373ffffffffffffffffffffffffffffffffffffffff1673ffffffffffffffffffffffffffffffffffffffff168152602001908152602001600020600101816000191690555082600160003373ffffffffffffffffffffffffffffffffffffffff1673ffffffffffffffffffffffffffffffffffffffff168152602001908152602001600020600201816000191690555081600160003373ffffffffffffffffffffffffffffffffffffffff1673ffffffffffffffffffffffffffffffffffffffff1681526020019081526020016000206003018160001916905550600160023390806001815401808255809150509060018203906000526020600020016000909192909190916101000a81548173ffffffffffffffffffffffffffffffffffffffff021916908373ffffffffffffffffffffffffffffffffffffffff16021790555003600160003373ffffffffffffffffffffffffffffffffffffffff1673ffffffffffffffffffffffffffffffffffffffff168152602001908152602001600020600401819055503373ffffffffffffffffffffffffffffffffffffffff167fc9368b11812b03e4dfbe2fe5f476f2e874d372ef6523964bc8f79f0e2af4cf7f8686600160003373ffffffffffffffffffffffffffffffffffffffff1673ffffffffffffffffffffffffffffffffffffffff168152602001908152602001600020600401546040518084600019166000191681526020018360001916600019168152602001828152602001935050505060405180910390a260019050949350505050565b6000806002805490501415151562001f93576040517f08c379a00000000000000000000000000000000000000000000000000000000081526004018080602001828103825260138152602001807f4e6f20726567697374657265642075736572730000000000000000000000000081525060200191505060405180910390fd5b3373ffffffffffffffffffffffffffffffffffffffff166002600160003373ffffffffffffffffffffffffffffffffffffffff1673ffffffffffffffffffffffffffffffffffffffff1681526020019081526020016000206004015481548110151562001ffc57fe5b9060005260206000200160009054906101000a900473ffffffffffffffffffffffffffffffffffffffff1673ffffffffffffffffffffffffffffffffffffffff16141515620020b3576040517f08c379a00000000000000000000000000000000000000000000000000000000081526004018080602001828103825260118152602001807f4e6f7420612076616c696465207573657200000000000000000000000000000081525060200191505060405180910390fd5b600160003373ffffffffffffffffffffffffffffffffffffffff1673ffffffffffffffffffffffffffffffffffffffff16815260200190815260200160002060040154905090565b6000809054906101000a900473ffffffffffffffffffffffffffffffffffffffff1673ffffffffffffffffffffffffffffffffffffffff163373ffffffffffffffffffffffffffffffffffffffff161415156200215757600080fd5b600060149054906101000a900460ff161515156200217457600080fd5b6001600060146101000a81548160ff0219169083151502179055507f6985a02210a168e66602d3235cb6db0e70f92b3ba4d376a33c0f3d9434bff62560405160405180910390a1565b6000809054906101000a900473ffffffffffffffffffffffffffffffffffffffff1681565b6000806000806000806002805490501415151562002268576040517f08c379a00000000000000000000000000000000000000000000000000000000081526004018080602001828103825260138152602001807f4e6f20726567697374657265642075736572730000000000000000000000000081525060200191505060405180910390fd5b3373ffffffffffffffffffffffffffffffffffffffff166002600160003373ffffffffffffffffffffffffffffffffffffffff1673ffffffffffffffffffffffffffffffffffffffff16815260200190815260200160002060040154815481101515620022d157fe5b9060005260206000200160009054906101000a900473ffffffffffffffffffffffffffffffffffffffff1673ffffffffffffffffffffffffffffffffffffffff1614151562002388576040517f08c379a00000000000000000000000000000000000000000000000000000000081526004018080602001828103825260118152602001807f4e6f7420612076616c696465207573657200000000000000000000000000000081525060200191505060405180910390fd5b600160003373ffffffffffffffffffffffffffffffffffffffff1673ffffffffffffffffffffffffffffffffffffffff16815260200190815260200160002060000154600160003373ffffffffffffffffffffffffffffffffffffffff1673ffffffffffffffffffffffffffffffffffffffff16815260200190815260200160002060010154600160003373ffffffffffffffffffffffffffffffffffffffff1673ffffffffffffffffffffffffffffffffffffffff16815260200190815260200160002060020154600160003373ffffffffffffffffffffffffffffffffffffffff1673ffffffffffffffffffffffffffffffffffffffff16815260200190815260200160002060030154600160003373ffffffffffffffffffffffffffffffffffffffff1673ffffffffffffffffffffffffffffffffffffffff168152602001908152602001600020600401549450945094509450945091939590929450565b600080600280549050141515156200256a576040517f08c379a00000000000000000000000000000000000000000000000000000000081526004018080602001828103825260138152602001807f4e6f20726567697374657265642075736572730000000000000000000000000081525060200191505060405180910390fd5b3373ffffffffffffffffffffffffffffffffffffffff166002600160003373ffffffffffffffffffffffffffffffffffffffff1673ffffffffffffffffffffffffffffffffffffffff16815260200190815260200160002060040154815481101515620025d357fe5b9060005260206000200160009054906101000a900473ffffffffffffffffffffffffffffffffffffffff1673ffffffffffffffffffffffffffffffffffffffff161415156200268a576040517f08c379a00000000000000000000000000000000000000000000000000000000081526004018080602001828103825260118152602001807f4e6f7420612076616c696465207573657200000000000000000000000000000081525060200191505060405180910390fd5b600160008373ffffffffffffffffffffffffffffffffffffffff1673ffffffffffffffffffffffffffffffffffffffff168152602001908152602001600020600101549050919050565b6000806002805490501415151562002754576040517f08c379a00000000000000000000000000000000000000000000000000000000081526004018080602001828103825260138152602001807f4e6f20726567697374657265642075736572730000000000000000000000000081525060200191505060405180910390fd5b3373ffffffffffffffffffffffffffffffffffffffff166002600160003373ffffffffffffffffffffffffffffffffffffffff1673ffffffffffffffffffffffffffffffffffffffff16815260200190815260200160002060040154815481101515620027bd57fe5b9060005260206000200160009054906101000a900473ffffffffffffffffffffffffffffffffffffffff1673ffffffffffffffffffffffffffffffffffffffff1614151562002874576040517f08c379a00000000000000000000000000000000000000000000000000000000081526004018080602001828103825260118152602001807f4e6f7420612076616c696465207573657200000000000000000000000000000081525060200191505060405180910390fd5b6002828154811015156200288457fe5b9060005260206000200160009054906101000a900473ffffffffffffffffffffffffffffffffffffffff169050919050565b6000806002805490501415151562002936576040517f08c379a00000000000000000000000000000000000000000000000000000000081526004018080602001828103825260138152602001807f4e6f20726567697374657265642075736572730000000000000000000000000081525060200191505060405180910390fd5b3373ffffffffffffffffffffffffffffffffffffffff166002600160003373ffffffffffffffffffffffffffffffffffffffff1673ffffffffffffffffffffffffffffffffffffffff168152602001908152602001600020600401548154811015156200299f57fe5b9060005260206000200160009054906101000a900473ffffffffffffffffffffffffffffffffffffffff1673ffffffffffffffffffffffffffffffffffffffff1614151562002a56576040517f08c379a00000000000000000000000000000000000000000000000000000000081526004018080602001828103825260118152602001807f4e6f7420612076616c696465207573657200000000000000000000000000000081525060200191505060405180910390fd5b600060149054906101000a900460ff1615151562002a7357600080fd5b600060010282600019161415151562002af4576040517f08c379a00000000000000000000000000000000000000000000000000000000081526004018080602001828103825260168152602001807f4e6f7420612076616c696420656d61696c206e616d650000000000000000000081525060200191505060405180910390fd5b81600160003373ffffffffffffffffffffffffffffffffffffffff1673ffffffffffffffffffffffffffffffffffffffff168152602001908152602001600020600101816000191690555060019050919050565b6000600280549050905090565b600080600060149054906101000a900460ff1615151562002b7557600080fd5b6001600480549050019150600360009054906101000a900473ffffffffffffffffffffffffffffffffffffffff166000809054906101000a900473ffffffffffffffffffffffffffffffffffffffff163389898989898962002bd6620038e2565b808a73ffffffffffffffffffffffffffffffffffffffff1673ffffffffffffffffffffffffffffffffffffffff1681526020018973ffffffffffffffffffffffffffffffffffffffff1673ffffffffffffffffffffffffffffffffffffffff1681526020018873ffffffffffffffffffffffffffffffffffffffff1673ffffffffffffffffffffffffffffffffffffffff16815260200180602001878152602001868152602001806020018060200185815260200184810384528a818151815260200191508051906020019080838360005b8381101562002cc557808201518184015260208101905062002ca8565b50505050905090810190601f16801562002cf35780820380516001836020036101000a031916815260200191505b50848103835287818151815260200191508051906020019080838360005b8381101562002d2e57808201518184015260208101905062002d11565b50505050905090810190601f16801562002d5c5780820380516001836020036101000a031916815260200191505b50848103825286818151815260200191508051906020019080838360005b8381101562002d9757808201518184015260208101905062002d7a565b50505050905090810190601f16801562002dc55780820380516001836020036101000a031916815260200191505b509c50505050505050505050505050604051809103906000f08015801562002df1573d6000803e3d6000fd5b50905060048190806001815401808255809150509060018203906000526020600020016000909192909190916101000a81548173ffffffffffffffffffffffffffffffffffffffff021916908373ffffffffffffffffffffffffffffffffffffffff160217905550507fc55977e27b093b0534b65e698affbc4ed8835c5b9ff901cc103781a582f1b15633868389604051808573ffffffffffffffffffffffffffffffffffffffff1673ffffffffffffffffffffffffffffffffffffffff1681526020018481526020018373ffffffffffffffffffffffffffffffffffffffff1673ffffffffffffffffffffffffffffffffffffffff16815260200182815260200194505050505060405180910390a150505050505050565b6000600480549050905090565b6000806002805490501415151562002f97576040517f08c379a00000000000000000000000000000000000000000000000000000000081526004018080602001828103825260138152602001807f4e6f20726567697374657265642075736572730000000000000000000000000081525060200191505060405180910390fd5b3373ffffffffffffffffffffffffffffffffffffffff166002600160003373ffffffffffffffffffffffffffffffffffffffff1673ffffffffffffffffffffffffffffffffffffffff168152602001908152602001600020600401548154811015156200300057fe5b9060005260206000200160009054906101000a900473ffffffffffffffffffffffffffffffffffffffff1673ffffffffffffffffffffffffffffffffffffffff16141515620030b7576040517f08c379a00000000000000000000000000000000000000000000000000000000081526004018080602001828103825260118152602001807f4e6f7420612076616c696465207573657200000000000000000000000000000081525060200191505060405180910390fd5b600160008373ffffffffffffffffffffffffffffffffffffffff1673ffffffffffffffffffffffffffffffffffffffff168152602001908152602001600020600001549050919050565b6000806002805490501415151562003181576040517f08c379a00000000000000000000000000000000000000000000000000000000081526004018080602001828103825260138152602001807f4e6f20726567697374657265642075736572730000000000000000000000000081525060200191505060405180910390fd5b3373ffffffffffffffffffffffffffffffffffffffff166002600160003373ffffffffffffffffffffffffffffffffffffffff1673ffffffffffffffffffffffffffffffffffffffff16815260200190815260200160002060040154815481101515620031ea57fe5b9060005260206000200160009054906101000a900473ffffffffffffffffffffffffffffffffffffffff1673ffffffffffffffffffffffffffffffffffffffff16141515620032a1576040517f08c379a00000000000000000000000000000000000000000000000000000000081526004018080602001828103825260118152602001807f4e6f7420612076616c696465207573657200000000000000000000000000000081525060200191505060405180910390fd5b600060149054906101000a900460ff16151515620032be57600080fd5b60006001028260001916141515156200333f576040517f08c379a00000000000000000000000000000000000000000000000000000000081526004018080602001828103825260158152602001807f4e6f7420612076616c69642075736572206e616d65000000000000000000000081525060200191505060405180910390fd5b81600160003373ffffffffffffffffffffffffffffffffffffffff1673ffffffffffffffffffffffffffffffffffffffff168152602001908152602001600020600001816000191690555060019050919050565b6000600482815481101515620033a557fe5b9060005260206000200160009054906101000a900473ffffffffffffffffffffffffffffffffffffffff169050919050565b6000809054906101000a900473ffffffffffffffffffffffffffffffffffffffff1673ffffffffffffffffffffffffffffffffffffffff163373ffffffffffffffffffffffffffffffffffffffff161415156200343357600080fd5b600060149054906101000a900460ff161515156200345057600080fd5b80600360006101000a81548173ffffffffffffffffffffffffffffffffffffffff021916908373ffffffffffffffffffffffffffffffffffffffff1602179055503373ffffffffffffffffffffffffffffffffffffffff167f3a5be5ecb7947f691d2a9dcdde3ff18fb358ef94bc5fadce37df610d1febfca4426040518082815260200191505060405180910390a250565b6000809054906101000a900473ffffffffffffffffffffffffffffffffffffffff1673ffffffffffffffffffffffffffffffffffffffff163373ffffffffffffffffffffffffffffffffffffffff161415156200353e57600080fd5b600073ffffffffffffffffffffffffffffffffffffffff168173ffffffffffffffffffffffffffffffffffffffff16141515156200357b57600080fd5b8073ffffffffffffffffffffffffffffffffffffffff166000809054906101000a900473ffffffffffffffffffffffffffffffffffffffff1673ffffffffffffffffffffffffffffffffffffffff167f8be0079c531659141344cd1fd0a4f28419497f9722a3daafe3b4186f6b6457e060405160405180910390a3806000806101000a81548173ffffffffffffffffffffffffffffffffffffffff021916908373ffffffffffffffffffffffffffffffffffffffff16021790555050565b60008060028054905014151515620036b9576040517f08c379a00000000000000000000000000000000000000000000000000000000081526004018080602001828103825260138152602001807f4e6f20726567697374657265642075736572730000000000000000000000000081525060200191505060405180910390fd5b3373ffffffffffffffffffffffffffffffffffffffff166002600160003373ffffffffffffffffffffffffffffffffffffffff1673ffffffffffffffffffffffffffffffffffffffff168152602001908152602001600020600401548154811015156200372257fe5b9060005260206000200160009054906101000a900473ffffffffffffffffffffffffffffffffffffffff1673ffffffffffffffffffffffffffffffffffffffff16141515620037d9576040517f08c379a00000000000000000000000000000000000000000000000000000000081526004018080602001828103825260118152602001807f4e6f7420612076616c696465207573657200000000000000000000000000000081525060200191505060405180910390fd5b600160008373ffffffffffffffffffffffffffffffffffffffff1673ffffffffffffffffffffffffffffffffffffffff168152602001908152602001600020600301549050919050565b60606004805480602002602001604051908101604052809291908181526020018280548015620038a957602002820191906000526020600020905b8160009054906101000a900473ffffffffffffffffffffffffffffffffffffffff1673ffffffffffffffffffffffffffffffffffffffff16815260200190600101908083116200385e575b5050505050905090565b815481835581811115620038dd57818360005260206000209182019101620038dc9190620038f3565b5b505050565b6040516106b1806200391c83390190565b6200391891905b8082111562003914576000816000905550600101620038fa565b5090565b905600608060405234801561001057600080fd5b506040516106b13803806106b1833981018060405281019080805190602001909291908051906020019092919080519060200190929190805182019291906020018051906020019092919080519060200190929190805182019291906020018051820192919060200180519060200190929190505050878960008173ffffffffffffffffffffffffffffffffffffffff16141515156100ae57600080fd5b806000806101000a81548173ffffffffffffffffffffffffffffffffffffffff021916908373ffffffffffffffffffffffffffffffffffffffff1602179055505080600160006101000a81548173ffffffffffffffffffffffffffffffffffffffff021916908373ffffffffffffffffffffffffffffffffffffffff16021790555050606486511015156101aa576040517f08c379a00000000000000000000000000000000000000000000000000000000081526004018080602001828103825260198152602001807f696e70757420737472696e6720697320746f6f206c617267650000000000000081525060200191505060405180910390fd5b601e8351101515610223576040517f08c379a00000000000000000000000000000000000000000000000000000000081526004018080602001828103825260198152602001807f696e70757420737472696e6720697320746f6f206c617267650000000000000081525060200191505060405180910390fd5b60fa825110151561029c576040517f08c379a00000000000000000000000000000000000000000000000000000000081526004018080602001828103825260198152602001807f696e70757420737472696e6720697320746f6f206c617267650000000000000081525060200191505060405180910390fd5b62278d0042018410151561033e576040517f08c379a00000000000000000000000000000000000000000000000000000000081526004018080602001828103825260288152602001807f666f6f642072657175657374207265737472696374656420666f72206e65787481526020017f203330206461797300000000000000000000000000000000000000000000000081525060400191505060405180910390fd5b60008511801561034f575061138885105b15156103e9576040517f08c379a00000000000000000000000000000000000000000000000000000000081526004018080602001828103825260278152602001807f466f6f64207175616e74697479206c696d69746564206265747765656e20312081526020017f746f20353030300000000000000000000000000000000000000000000000000081525060400191505060405180910390fd5b86600260006101000a81548173ffffffffffffffffffffffffffffffffffffffff021916908373ffffffffffffffffffffffffffffffffffffffff1602179055508560039080519060200190610440929190610581565b5084600b8190555082600a908051906020019061045e929190610581565b5081600d9080519060200190610475929190610581565b5083600e81905550806011819055506001601260006101000a81548160ff021916908360078111156104a357fe5b0217905550848773ffffffffffffffffffffffffffffffffffffffff168973ffffffffffffffffffffffffffffffffffffffff167fdc9f287d641859bbd35f7b836c113c39abcd762acf2dcc3d93519c49b80bb592856040518080602001828103825283818151815260200191508051906020019080838360005b8381101561053957808201518184015260208101905061051e565b50505050905090810190601f1680156105665780820380516001836020036101000a031916815260200191505b509250505060405180910390a4505050505050505050610626565b828054600181600116156101000203166002900490600052602060002090601f016020900481019282601f106105c257805160ff19168380011785556105f0565b828001600101855582156105f0579182015b828111156105ef5782518255916020019190600101906105d4565b5b5090506105fd9190610601565b5090565b61062391905b8082111561061f576000816000905550600101610607565b5090565b90565b607d806106346000396000f300608060405260008060009054906101000a900473ffffffffffffffffffffffffffffffffffffffff1690506040513660008237600081368385600019f43d6000833e8060008114604d573d83f35b3d83fd00a165627a7a72305820ba5f1fd40f239fc3eee3ddc731ce3dde72fcb9581266a2ca197ee70d5db7b15e0029a165627a7a723058202d6b6cb51cc8b2b20bb48bad5122d299c0a1f130545c21ebf386d9092fdb3c640029",
  "source": "/**\n * @description  FoodForAll factory contract \n * @author SijeshP <sijesh.poovalapil@gmail.com>\n * @dev purpose of this contract to hide the base implementation behinde a facade so that user get a\n * consistant interface for creating campaign contract. Also get a summary details from this factory contract\n */\n\npragma solidity ^0.4.24;\n\nimport \"./FfaCampaign.sol\";\nimport \"./UserMgmt.sol\";\nimport \"zeppelin/contracts/lifecycle/Pausable.sol\";\n\n/**\n * @title CampaignFactory - Food for All campaign factory contract  \n * @dev Factory contract hide the implementation details behind facade\n * Provide users with a consistant interface\n */\ncontract CampaignFactory is UserMgmt {\n  \n    // Campaign contracts\n    FoodForAllCampaign private foodForAllCampaignMasterCopy;\n    address[] private deployedFoodCampaigns;\n\n    // Events broadcasted by the factory contract / Log events\n    event CampaignCreation(\n        address creator, \n        uint _deliverytime,\n        FoodForAllCampaign newCampaignProxyAddr, \n        uint quantity\n    );\n\n    // to log event whenever a master contract update \n    event ContractUpdatedInFactory(address indexed contractOwner, uint time);\n    \n    /** \n    * @dev Set the Food for all master contract.This is the reference contract for the factory.\n    * @param _campaignMasterCopy Maser contract copy of the food for all campaign .\n    */\n    constructor(FoodForAllCampaign _campaignMasterCopy)\n        public\n        onlyOwner()\n        whenNotPaused()\n    {\n        foodForAllCampaignMasterCopy = _campaignMasterCopy;\n    }\n\n    /** \n    * @dev Creates new FoodForAllCampaign contract.\n    * For every food requirement, creates a contract and track the supply and delivery\n    * @param _requesterName food requriement requester\n    * @param _quantity for how many people food required\n    * @param _deliverytime when the food required.(currently made as 'string' for flexibility.)\n    * @param _deliveryPointContactNo contact no. at the delivery point\n    * @param _locationAddr food delivery location(TODO- add lat/log -integrate gmap frontend)\n    */\n    function foodForAllCreateNewCampaign(\n        string _requesterName, \n        uint _quantity,\n        uint _deliverytime, \n        string _deliveryPointContactNo, \n        string _locationAddr\n    ) \n        public \n        whenNotPaused()\n    {\n        uint newCampaignIndex = deployedFoodCampaigns.length+1;\n        FoodForAllCampaign newCampaignProxyAddr = FoodForAllCampaign(\n            new FoodForAllCampaignProxy (\n            foodForAllCampaignMasterCopy, \n            owner,\n            msg.sender,\n            _requesterName,  \n            _quantity, \n            _deliverytime,      \n            _deliveryPointContactNo, \n            _locationAddr,\n            newCampaignIndex\n        ));\n\n        deployedFoodCampaigns.push(newCampaignProxyAddr);\n        emit CampaignCreation(msg.sender, _deliverytime, newCampaignProxyAddr, _quantity);\n    }\n\n    /** \n     * @dev Set the Food for all master contract.This is the reference contract for the factory.\n     * This will give a featur to upgrade only contract logic.\n     * @param _campaignMasterCopy Maser contract copy of the food for all campaign .\n     */\n    function updateMasterContractCopy(FoodForAllCampaign _campaignMasterCopy)\n        public\n        onlyOwner()\n        whenNotPaused()\n    {\n        foodForAllCampaignMasterCopy = _campaignMasterCopy;\n        emit ContractUpdatedInFactory(msg.sender, now);\n    }\n\n    //retrives all the deployed campaigns\n    function getAllDeployedFoodCampaigns() \n        public \n        view \n        returns (address[]) \n    {\n        return deployedFoodCampaigns;\n    }\n\n    //retrives deployed campaigns with index\n    function getDeployedFoodCampaignWithIndex(uint index) public view returns (address) {\n        return deployedFoodCampaigns[index];\n    }\n\n    //get total deployed campaigns\n    function getTotalDeployedFoodCampaigns()  \n        public \n        view \n        returns (uint totalDeployedCampaigns ) \n    {\n        totalDeployedCampaigns = deployedFoodCampaigns.length;\n    }\n\n}\n",
  "sourcePath": "/Users/sijeshp/ConsensysAcademy/Code/Projects/projectSubmit/FoodForAll/contracts/CampaignFactory.sol",
  "compiler": {
    "name": "solc",
    "version": "0.4.24+commit.e67f0147.Emscripten.clang"
  },
  "schemaVersion": "2.0.0",
  "updatedAt": "2018-08-23T13:34:28.720Z"
}