{
  "contractName": "FoodForAllCampaign2",
  "abi": [
    {
      "constant": true,
      "inputs": [],
      "name": "getFfaDeliveryPersonSummary",
      "outputs": [
        {
          "name": "",
          "type": "address"
        },
        {
          "name": "",
          "type": "string"
        },
        {
          "name": "",
          "type": "uint256"
        }
      ],
      "payable": false,
      "stateMutability": "view",
      "type": "function"
    },
    {
      "constant": false,
      "inputs": [
        {
          "name": "newupgradeOwner",
          "type": "address"
        }
      ],
      "name": "setOwner",
      "outputs": [],
      "payable": false,
      "stateMutability": "nonpayable",
      "type": "function"
    },
    {
      "constant": true,
      "inputs": [],
      "name": "getFfaProducerAddress",
      "outputs": [
        {
          "name": "",
          "type": "address"
        }
      ],
      "payable": false,
      "stateMutability": "view",
      "type": "function"
    },
    {
      "constant": false,
      "inputs": [
        {
          "name": "_status",
          "type": "uint8"
        }
      ],
      "name": "setStatus",
      "outputs": [],
      "payable": false,
      "stateMutability": "nonpayable",
      "type": "function"
    },
    {
      "constant": true,
      "inputs": [],
      "name": "getFfaCampaignMoreInfo",
      "outputs": [
        {
          "name": "",
          "type": "string"
        },
        {
          "name": "",
          "type": "string"
        }
      ],
      "payable": false,
      "stateMutability": "view",
      "type": "function"
    },
    {
      "constant": false,
      "inputs": [
        {
          "name": "_deiverPerName",
          "type": "string"
        }
      ],
      "name": "contributeByDeliverFood",
      "outputs": [],
      "payable": false,
      "stateMutability": "nonpayable",
      "type": "function"
    },
    {
      "constant": false,
      "inputs": [],
      "name": "getFfaDeliveryPickTime",
      "outputs": [
        {
          "name": "",
          "type": "uint256"
        }
      ],
      "payable": false,
      "stateMutability": "nonpayable",
      "type": "function"
    },
    {
      "constant": false,
      "inputs": [],
      "name": "setFoodDeliveryAcknowledge",
      "outputs": [],
      "payable": false,
      "stateMutability": "nonpayable",
      "type": "function"
    },
    {
      "constant": false,
      "inputs": [],
      "name": "setFoodOutForDelivery",
      "outputs": [],
      "payable": false,
      "stateMutability": "nonpayable",
      "type": "function"
    },
    {
      "constant": true,
      "inputs": [],
      "name": "getFfaStatus",
      "outputs": [
        {
          "name": "",
          "type": "uint8"
        }
      ],
      "payable": false,
      "stateMutability": "view",
      "type": "function"
    },
    {
      "constant": false,
      "inputs": [
        {
          "name": "_description",
          "type": "string"
        }
      ],
      "name": "setFfaCampaignRequirementDescription",
      "outputs": [],
      "payable": false,
      "stateMutability": "nonpayable",
      "type": "function"
    },
    {
      "constant": true,
      "inputs": [],
      "name": "getFfaRequesterName",
      "outputs": [
        {
          "name": "",
          "type": "string"
        }
      ],
      "payable": false,
      "stateMutability": "view",
      "type": "function"
    },
    {
      "constant": true,
      "inputs": [],
      "name": "getFfaRequesterAddress",
      "outputs": [
        {
          "name": "",
          "type": "address"
        }
      ],
      "payable": false,
      "stateMutability": "view",
      "type": "function"
    },
    {
      "constant": true,
      "inputs": [],
      "name": "getFfaDeliveryPersonAddress",
      "outputs": [
        {
          "name": "",
          "type": "address"
        }
      ],
      "payable": false,
      "stateMutability": "view",
      "type": "function"
    },
    {
      "constant": false,
      "inputs": [
        {
          "name": "_productionReadyTime",
          "type": "uint256"
        }
      ],
      "name": "setFfaExpectedProductionReadyTime",
      "outputs": [],
      "payable": false,
      "stateMutability": "nonpayable",
      "type": "function"
    },
    {
      "constant": false,
      "inputs": [
        {
          "name": "_deliveryPickTime",
          "type": "uint256"
        }
      ],
      "name": "setFfaDeliveryPickTime",
      "outputs": [],
      "payable": false,
      "stateMutability": "nonpayable",
      "type": "function"
    },
    {
      "constant": true,
      "inputs": [],
      "name": "getFfaRequesterSummary",
      "outputs": [
        {
          "name": "",
          "type": "address"
        },
        {
          "name": "",
          "type": "string"
        }
      ],
      "payable": false,
      "stateMutability": "view",
      "type": "function"
    },
    {
      "constant": true,
      "inputs": [],
      "name": "getFfaDeliveryPersonName",
      "outputs": [
        {
          "name": "",
          "type": "string"
        }
      ],
      "payable": false,
      "stateMutability": "view",
      "type": "function"
    },
    {
      "constant": true,
      "inputs": [
        {
          "name": "",
          "type": "string"
        }
      ],
      "name": "getFfaProducerName",
      "outputs": [
        {
          "name": "",
          "type": "string"
        }
      ],
      "payable": false,
      "stateMutability": "view",
      "type": "function"
    },
    {
      "constant": true,
      "inputs": [],
      "name": "getFfaProducerSummary",
      "outputs": [
        {
          "name": "",
          "type": "address"
        },
        {
          "name": "",
          "type": "string"
        },
        {
          "name": "",
          "type": "uint256"
        }
      ],
      "payable": false,
      "stateMutability": "view",
      "type": "function"
    },
    {
      "constant": false,
      "inputs": [
        {
          "name": "_ifpsMediaLink",
          "type": "string"
        }
      ],
      "name": "setFfaCampaignMedia",
      "outputs": [],
      "payable": false,
      "stateMutability": "nonpayable",
      "type": "function"
    },
    {
      "constant": false,
      "inputs": [],
      "name": "setFoodReadyForDelivery",
      "outputs": [],
      "payable": false,
      "stateMutability": "nonpayable",
      "type": "function"
    },
    {
      "constant": false,
      "inputs": [
        {
          "name": "update",
          "type": "address"
        }
      ],
      "name": "updateMasterCopy",
      "outputs": [],
      "payable": false,
      "stateMutability": "nonpayable",
      "type": "function"
    },
    {
      "constant": true,
      "inputs": [],
      "name": "getFfaDeliverLocationSummary",
      "outputs": [
        {
          "name": "",
          "type": "string"
        },
        {
          "name": "",
          "type": "string"
        },
        {
          "name": "",
          "type": "string"
        },
        {
          "name": "",
          "type": "uint256"
        }
      ],
      "payable": false,
      "stateMutability": "view",
      "type": "function"
    },
    {
      "constant": false,
      "inputs": [],
      "name": "setFoodDelivered",
      "outputs": [],
      "payable": false,
      "stateMutability": "nonpayable",
      "type": "function"
    },
    {
      "constant": true,
      "inputs": [],
      "name": "getFfaExpectedProductionReadyTime",
      "outputs": [
        {
          "name": "",
          "type": "uint256"
        }
      ],
      "payable": false,
      "stateMutability": "view",
      "type": "function"
    },
    {
      "anonymous": false,
      "inputs": [
        {
          "indexed": true,
          "name": "ContractOwner",
          "type": "address"
        },
        {
          "indexed": true,
          "name": "requesterAddress",
          "type": "address"
        },
        {
          "indexed": true,
          "name": "quantity",
          "type": "uint256"
        },
        {
          "indexed": false,
          "name": "_locationAddr",
          "type": "string"
        }
      ],
      "name": "FoodForAllCampaignProxyCreated",
      "type": "event"
    },
    {
      "anonymous": false,
      "inputs": [
        {
          "indexed": true,
          "name": "producerAddress",
          "type": "address"
        },
        {
          "indexed": false,
          "name": "producerName",
          "type": "string"
        }
      ],
      "name": "FoodProducerReady",
      "type": "event"
    },
    {
      "anonymous": false,
      "inputs": [
        {
          "indexed": true,
          "name": "deliveryPersonAddress",
          "type": "address"
        },
        {
          "indexed": false,
          "name": "deliveryPersonName",
          "type": "string"
        }
      ],
      "name": "FoodDeliveryPersonReady",
      "type": "event"
    },
    {
      "anonymous": false,
      "inputs": [
        {
          "indexed": true,
          "name": "statusModifier",
          "type": "address"
        },
        {
          "indexed": false,
          "name": "newStatus",
          "type": "uint8"
        }
      ],
      "name": "FfaStatusChange",
      "type": "event"
    },
    {
      "anonymous": false,
      "inputs": [
        {
          "indexed": true,
          "name": "producer",
          "type": "address"
        },
        {
          "indexed": false,
          "name": "expectedProdReadyTime",
          "type": "uint256"
        }
      ],
      "name": "FoodProductionReadyTimeSet",
      "type": "event"
    },
    {
      "anonymous": false,
      "inputs": [
        {
          "indexed": true,
          "name": "deliveryPerson",
          "type": "address"
        },
        {
          "indexed": false,
          "name": "deliveryPickTime",
          "type": "uint256"
        }
      ],
      "name": "FoodDeliveryPickUpTimeSet",
      "type": "event"
    },
    {
      "constant": false,
      "inputs": [],
      "name": "makeContractInactive",
      "outputs": [],
      "payable": false,
      "stateMutability": "nonpayable",
      "type": "function"
    },
    {
      "constant": false,
      "inputs": [
        {
          "name": "_producerName",
          "type": "string"
        }
      ],
      "name": "contributeByProduceFood",
      "outputs": [],
      "payable": false,
      "stateMutability": "nonpayable",
      "type": "function"
    },
    {
      "constant": true,
      "inputs": [],
      "name": "getContractLifeStatus",
      "outputs": [
        {
          "name": "",
          "type": "bool"
        }
      ],
      "payable": false,
      "stateMutability": "view",
      "type": "function"
    }
  ],
  "bytecode": "0x6080604052600080600160006101000a81548173ffffffffffffffffffffffffffffffffffffffff021916908373ffffffffffffffffffffffffffffffffffffffff1602179055505061305b806100576000396000f300608060405260043610610175576000357c0100000000000000000000000000000000000000000000000000000000900463ffffffff16806308dc7e761461017a5780630f5646e2146101a957806313af40351461027357806329b5c776146102b65780632e49d78b1461030d5780632fe4e2511461033d57806344c59b9e1461043957806349d7c423146104a25780634fea6089146104cd57806369400f02146104e45780636e061e99146104fb5780636e31916214610534578063886664561461059d57806393f440d81461062d578063a56bc24014610684578063a639a041146106db578063b5a753ce14610708578063b72148d814610735578063b889afac146107f8578063c964958e14610888578063d19a9c961461096a578063d2c260e3146109d3578063d7bc5f9314610a9d578063e8ba6fe014610b06578063e9f8f12b14610b1d578063ec0be64514610b60578063f4cfb69f14610ccf578063f5e38de914610ce6578063faade24b14610d11575b600080fd5b34801561018657600080fd5b5061018f610d28565b604051808215151515815260200191505060405180910390f35b3480156101b557600080fd5b506101be610d3f565b604051808473ffffffffffffffffffffffffffffffffffffffff1673ffffffffffffffffffffffffffffffffffffffff16815260200180602001838152602001828103825284818151815260200191508051906020019080838360005b8381101561023657808201518184015260208101905061021b565b50505050905090810190601f1680156102635780820380516001836020036101000a031916815260200191505b5094505050505060405180910390f35b34801561027f57600080fd5b506102b4600480360381019080803573ffffffffffffffffffffffffffffffffffffffff169060200190929190505050610e14565b005b3480156102c257600080fd5b506102cb610eb4565b604051808273ffffffffffffffffffffffffffffffffffffffff1673ffffffffffffffffffffffffffffffffffffffff16815260200191505060405180910390f35b34801561031957600080fd5b5061033b600480360381019080803560ff169060200190929190505050610ede565b005b34801561034957600080fd5b50610352611091565b604051808060200180602001838103835285818151815260200191508051906020019080838360005b8381101561039657808201518184015260208101905061037b565b50505050905090810190601f1680156103c35780820380516001836020036101000a031916815260200191505b50838103825284818151815260200191508051906020019080838360005b838110156103fc5780820151818401526020810190506103e1565b50505050905090810190601f1680156104295780820380516001836020036101000a031916815260200191505b5094505050505060405180910390f35b34801561044557600080fd5b506104a0600480360381019080803590602001908201803590602001908080601f01602080910402602001604051908101604052809392919081815260200183838082843782019150505050505091929192905050506111d8565b005b3480156104ae57600080fd5b506104b7611488565b6040518082815260200191505060405180910390f35b3480156104d957600080fd5b506104e2611492565b005b3480156104f057600080fd5b506104f9611666565b005b34801561050757600080fd5b5061051061183a565b6040518082600781111561052057fe5b60ff16815260200191505060405180910390f35b34801561054057600080fd5b5061059b600480360381019080803590602001908201803590602001908080601f0160208091040260200160405190810160405280939291908181526020018383808284378201915050505050509192919290505050611851565b005b3480156105a957600080fd5b506105b2611a06565b6040518080602001828103825283818151815260200191508051906020019080838360005b838110156105f25780820151818401526020810190506105d7565b50505050905090810190601f16801561061f5780820380516001836020036101000a031916815260200191505b509250505060405180910390f35b34801561063957600080fd5b50610642611aa8565b604051808273ffffffffffffffffffffffffffffffffffffffff1673ffffffffffffffffffffffffffffffffffffffff16815260200191505060405180910390f35b34801561069057600080fd5b50610699611ad2565b604051808273ffffffffffffffffffffffffffffffffffffffff1673ffffffffffffffffffffffffffffffffffffffff16815260200191505060405180910390f35b3480156106e757600080fd5b5061070660048036038101908080359060200190929190505050611afc565b005b34801561071457600080fd5b5061073360048036038101908080359060200190929190505050611ce3565b005b34801561074157600080fd5b5061074a611eca565b604051808373ffffffffffffffffffffffffffffffffffffffff1673ffffffffffffffffffffffffffffffffffffffff16815260200180602001828103825283818151815260200191508051906020019080838360005b838110156107bc5780820151818401526020810190506107a1565b50505050905090810190601f1680156107e95780820380516001836020036101000a031916815260200191505b50935050505060405180910390f35b34801561080457600080fd5b5061080d611f97565b6040518080602001828103825283818151815260200191508051906020019080838360005b8381101561084d578082015181840152602081019050610832565b50505050905090810190601f16801561087a5780820380516001836020036101000a031916815260200191505b509250505060405180910390f35b34801561089457600080fd5b506108ef600480360381019080803590602001908201803590602001908080601f0160208091040260200160405190810160405280939291908181526020018383808284378201915050505050509192919290505050612039565b6040518080602001828103825283818151815260200191508051906020019080838360005b8381101561092f578082015181840152602081019050610914565b50505050905090810190601f16801561095c5780820380516001836020036101000a031916815260200191505b509250505060405180910390f35b34801561097657600080fd5b506109d1600480360381019080803590602001908201803590602001908080601f01602080910402602001604051908101604052809392919081815260200183838082843782019150505050505091929192905050506120dd565b005b3480156109df57600080fd5b506109e861216d565b604051808473ffffffffffffffffffffffffffffffffffffffff1673ffffffffffffffffffffffffffffffffffffffff16815260200180602001838152602001828103825284818151815260200191508051906020019080838360005b83811015610a60578082015181840152602081019050610a45565b50505050905090810190601f168015610a8d5780820380516001836020036101000a031916815260200191505b5094505050505060405180910390f35b348015610aa957600080fd5b50610b04600480360381019080803590602001908201803590602001908080601f0160208091040260200160405190810160405280939291908181526020018383808284378201915050505050509192919290505050612242565b005b348015610b1257600080fd5b50610b1b6123f7565b005b348015610b2957600080fd5b50610b5e600480360381019080803573ffffffffffffffffffffffffffffffffffffffff169060200190929190505050612573565b005b348015610b6c57600080fd5b50610b75612865565b60405180806020018060200180602001858152602001848103845288818151815260200191508051906020019080838360005b83811015610bc3578082015181840152602081019050610ba8565b50505050905090810190601f168015610bf05780820380516001836020036101000a031916815260200191505b50848103835287818151815260200191508051906020019080838360005b83811015610c29578082015181840152602081019050610c0e565b50505050905090810190601f168015610c565780820380516001836020036101000a031916815260200191505b50848103825286818151815260200191508051906020019080838360005b83811015610c8f578082015181840152602081019050610c74565b50505050905090810190601f168015610cbc5780820380516001836020036101000a031916815260200191505b5097505050505050505060405180910390f35b348015610cdb57600080fd5b50610ce4612a57565b005b348015610cf257600080fd5b50610cfb612bd3565b6040518082815260200191505060405180910390f35b348015610d1d57600080fd5b50610d26612bdd565b005b6000601260019054906101000a900460ff16905090565b600060606000600760009054906101000a900473ffffffffffffffffffffffffffffffffffffffff166008600954818054600181600116156101000203166002900480601f016020809104026020016040519081016040528092919081815260200182805460018160011615610100020316600290048015610e025780601f10610dd757610100808354040283529160200191610e02565b820191906000526020600020905b815481529060010190602001808311610de557829003601f168201915b50505050509150925092509250909192565b600160009054906101000a900473ffffffffffffffffffffffffffffffffffffffff1673ffffffffffffffffffffffffffffffffffffffff163373ffffffffffffffffffffffffffffffffffffffff16141515610e7057600080fd5b80600160006101000a81548173ffffffffffffffffffffffffffffffffffffffff021916908373ffffffffffffffffffffffffffffffffffffffff16021790555050565b6000600460009054906101000a900473ffffffffffffffffffffffffffffffffffffffff16905090565b600160009054906101000a900473ffffffffffffffffffffffffffffffffffffffff1673ffffffffffffffffffffffffffffffffffffffff163373ffffffffffffffffffffffffffffffffffffffff16141515610f3a57600080fd5b60006007811115610f4757fe5b816007811115610f5357fe5b118015610f755750600780811115610f6757fe5b816007811115610f7357fe5b105b151561100f576040517f08c379a00000000000000000000000000000000000000000000000000000000081526004018080602001828103825260278152602001807f436f6e7472616374207374617475732073686f756c642062652077697468206981526020017f6e206c696d69740000000000000000000000000000000000000000000000000081525060400191505060405180910390fd5b80601260006101000a81548160ff0219169083600781111561102d57fe5b02179055503373ffffffffffffffffffffffffffffffffffffffff167f881e709e9c64eab74265e31b2c1aa4aa8319919ff22da59312692d6762744a51826040518082600781111561107b57fe5b60ff16815260200191505060405180910390a250565b606080600f6010818054600181600116156101000203166002900480601f01602080910402602001604051908101604052809291908181526020018280546001816001161561010002031660029004801561112d5780601f106111025761010080835404028352916020019161112d565b820191906000526020600020905b81548152906001019060200180831161111057829003601f168201915b50505050509150808054600181600116156101000203166002900480601f0160208091040260200160405190810160405280929190818152602001828054600181600116156101000203166002900480156111c95780601f1061119e576101008083540402835291602001916111c9565b820191906000526020600020905b8154815290600101906020018083116111ac57829003601f168201915b50505050509050915091509091565b60028060078111156111e657fe5b601260009054906101000a900460ff16600781111561120157fe5b14151561129c576040517f08c379a00000000000000000000000000000000000000000000000000000000081526004018080602001828103825260278152602001807f46756e6374696f6e2063616e6e6f742062652063616c6c65642061742074686981526020017f732074696d652e0000000000000000000000000000000000000000000000000081525060400191505060405180910390fd5b60c88251101515611315576040517f08c379a00000000000000000000000000000000000000000000000000000000081526004018080602001828103825260198152602001807f696e70757420737472696e6720697320746f6f206c617267650000000000000081525060200191505060405180910390fd5b33600760006101000a81548173ffffffffffffffffffffffffffffffffffffffff021916908373ffffffffffffffffffffffffffffffffffffffff160217905550816008908051906020019061136c929190612f8a565b506003601260006101000a81548160ff0219169083600781111561138c57fe5b0217905550600760009054906101000a900473ffffffffffffffffffffffffffffffffffffffff1673ffffffffffffffffffffffffffffffffffffffff167f17cbc1cf03346c0e3f004a17b307f3f4056e8e0a27ed6c5fc48884f231fb834a600860405180806020018281038252838181546001816001161561010002031660029004815260200191508054600181600116156101000203166002900480156114765780601f1061144b57610100808354040283529160200191611476565b820191906000526020600020905b81548152906001019060200180831161145957829003601f168201915b50509250505060405180910390a25050565b6000600954905090565b600260009054906101000a900473ffffffffffffffffffffffffffffffffffffffff1673ffffffffffffffffffffffffffffffffffffffff163373ffffffffffffffffffffffffffffffffffffffff16148061153b5750600160009054906101000a900473ffffffffffffffffffffffffffffffffffffffff1673ffffffffffffffffffffffffffffffffffffffff163373ffffffffffffffffffffffffffffffffffffffff16145b15156115d5576040517f08c379a00000000000000000000000000000000000000000000000000000000081526004018080602001828103825260248152602001807f4f6e6c792064656c69766572795065722073686f756c6420736574207468652081526020017f74696d650000000000000000000000000000000000000000000000000000000081525060400191505060405180910390fd5b6007601260006101000a81548160ff021916908360078111156115f457fe5b02179055503373ffffffffffffffffffffffffffffffffffffffff167f881e709e9c64eab74265e31b2c1aa4aa8319919ff22da59312692d6762744a51601260009054906101000a900460ff166040518082600781111561165157fe5b60ff16815260200191505060405180910390a2565b600460009054906101000a900473ffffffffffffffffffffffffffffffffffffffff1673ffffffffffffffffffffffffffffffffffffffff163373ffffffffffffffffffffffffffffffffffffffff16148061170f5750600760009054906101000a900473ffffffffffffffffffffffffffffffffffffffff1673ffffffffffffffffffffffffffffffffffffffff163373ffffffffffffffffffffffffffffffffffffffff16145b15156117a9576040517f08c379a000000000000000000000000000000000000000000000000000000000815260040180806020018281038252603a8152602001807f6f6e6c792070726f6475636572206f722064656c697665727920706572736f6e81526020017f2073686f756c642075706461746520746869732073746174757300000000000081525060400191505060405180910390fd5b6005601260006101000a81548160ff021916908360078111156117c857fe5b02179055503373ffffffffffffffffffffffffffffffffffffffff167f881e709e9c64eab74265e31b2c1aa4aa8319919ff22da59312692d6762744a51601260009054906101000a900460ff166040518082600781111561182557fe5b60ff16815260200191505060405180910390a2565b6000601260009054906101000a900460ff16905090565b600260009054906101000a900473ffffffffffffffffffffffffffffffffffffffff1673ffffffffffffffffffffffffffffffffffffffff163373ffffffffffffffffffffffffffffffffffffffff1614806118fa5750600460009054906101000a900473ffffffffffffffffffffffffffffffffffffffff1673ffffffffffffffffffffffffffffffffffffffff163373ffffffffffffffffffffffffffffffffffffffff16145b806119525750600760009054906101000a900473ffffffffffffffffffffffffffffffffffffffff1673ffffffffffffffffffffffffffffffffffffffff163373ffffffffffffffffffffffffffffffffffffffff16145b15156119ec576040517f08c379a00000000000000000000000000000000000000000000000000000000081526004018080602001828103825260348152602001807f4f6e6c7920636f6e74616374207061727469636970616e74732063616e20757081526020017f6461746520746865206465736372697074696f6e00000000000000000000000081525060400191505060405180910390fd5b80600f9080519060200190611a02929190612f8a565b5050565b606060038054600181600116156101000203166002900480601f016020809104026020016040519081016040528092919081815260200182805460018160011615610100020316600290048015611a9e5780601f10611a7357610100808354040283529160200191611a9e565b820191906000526020600020905b815481529060010190602001808311611a8157829003601f168201915b5050505050905090565b6000600260009054906101000a900473ffffffffffffffffffffffffffffffffffffffff16905090565b6000600760009054906101000a900473ffffffffffffffffffffffffffffffffffffffff16905090565b600460009054906101000a900473ffffffffffffffffffffffffffffffffffffffff1673ffffffffffffffffffffffffffffffffffffffff163373ffffffffffffffffffffffffffffffffffffffff16141515611be7576040517f08c379a00000000000000000000000000000000000000000000000000000000081526004018080602001828103825260218152602001807f4f6e6c792070726f64756365722073686f756c6420736574207468652074696d81526020017f650000000000000000000000000000000000000000000000000000000000000081525060400191505060405180910390fd5b62278d00420181101515611c89576040517f08c379a00000000000000000000000000000000000000000000000000000000081526004018080602001828103825260338152602001807f6578706563657465642070726f642072656164792074696d652073686f756c6481526020017f206265207769746820696e20333020646179730000000000000000000000000081525060400191505060405180910390fd5b806006819055503373ffffffffffffffffffffffffffffffffffffffff167f7368f8aba69fa556f023ffeb2367d035eba35e0505509588bea6885d01f3c3d46006546040518082815260200191505060405180910390a250565b600760009054906101000a900473ffffffffffffffffffffffffffffffffffffffff1673ffffffffffffffffffffffffffffffffffffffff163373ffffffffffffffffffffffffffffffffffffffff16141515611dce576040517f08c379a00000000000000000000000000000000000000000000000000000000081526004018080602001828103825260248152602001807f4f6e6c792064656c69766572795065722073686f756c6420736574207468652081526020017f74696d650000000000000000000000000000000000000000000000000000000081525060400191505060405180910390fd5b62278d00420181101515611e70576040517f08c379a00000000000000000000000000000000000000000000000000000000081526004018080602001828103825260278152602001807f64656c69766572792074696d652073686f756c64206265207769746820696e2081526020017f333020646179730000000000000000000000000000000000000000000000000081525060400191505060405180910390fd5b806009819055503373ffffffffffffffffffffffffffffffffffffffff167f74a405ccb961e5fb01ece03cb2f38754dfca2fe8f2c8ea2a79e29f63ce47c4c56009546040518082815260200191505060405180910390a250565b60006060600260009054906101000a900473ffffffffffffffffffffffffffffffffffffffff166003808054600181600116156101000203166002900480601f016020809104026020016040519081016040528092919081815260200182805460018160011615610100020316600290048015611f885780601f10611f5d57610100808354040283529160200191611f88565b820191906000526020600020905b815481529060010190602001808311611f6b57829003601f168201915b50505050509050915091509091565b606060088054600181600116156101000203166002900480601f01602080910402602001604051908101604052809291908181526020018280546001816001161561010002031660029004801561202f5780601f106120045761010080835404028352916020019161202f565b820191906000526020600020905b81548152906001019060200180831161201257829003601f168201915b5050505050905090565b606060058054600181600116156101000203166002900480601f0160208091040260200160405190810160405280929190818152602001828054600181600116156101000203166002900480156120d15780601f106120a6576101008083540402835291602001916120d1565b820191906000526020600020905b8154815290600101906020018083116120b457829003601f168201915b50505050509050919050565b601260019054906101000a900460ff161515612161576040517f08c379a000000000000000000000000000000000000000000000000000000000815260040180806020018281038252601a8152602001807f436f6e74726163742073686f756c64206265206163746976652000000000000081525060200191505060405180910390fd5b61216a81612cda565b50565b600060606000600460009054906101000a900473ffffffffffffffffffffffffffffffffffffffff166005600654818054600181600116156101000203166002900480601f0160208091040260200160405190810160405280929190818152602001828054600181600116156101000203166002900480156122305780601f1061220557610100808354040283529160200191612230565b820191906000526020600020905b81548152906001019060200180831161221357829003601f168201915b50505050509150925092509250909192565b600260009054906101000a900473ffffffffffffffffffffffffffffffffffffffff1673ffffffffffffffffffffffffffffffffffffffff163373ffffffffffffffffffffffffffffffffffffffff1614806122eb5750600460009054906101000a900473ffffffffffffffffffffffffffffffffffffffff1673ffffffffffffffffffffffffffffffffffffffff163373ffffffffffffffffffffffffffffffffffffffff16145b806123435750600760009054906101000a900473ffffffffffffffffffffffffffffffffffffffff1673ffffffffffffffffffffffffffffffffffffffff163373ffffffffffffffffffffffffffffffffffffffff16145b15156123dd576040517f08c379a00000000000000000000000000000000000000000000000000000000081526004018080602001828103825260348152602001807f4f6e6c7920636f6e74616374207061727469636970616e74732063616e20757081526020017f6461746520746865206465736372697074696f6e00000000000000000000000081525060400191505060405180910390fd5b80601090805190602001906123f3929190612f8a565b5050565b600460009054906101000a900473ffffffffffffffffffffffffffffffffffffffff1673ffffffffffffffffffffffffffffffffffffffff163373ffffffffffffffffffffffffffffffffffffffff161415156124e2576040517f08c379a00000000000000000000000000000000000000000000000000000000081526004018080602001828103825260268152602001807f4f6e6c792070726f64756365722073686f756c6420756461746520746869732081526020017f737461747573000000000000000000000000000000000000000000000000000081525060400191505060405180910390fd5b6004601260006101000a81548160ff0219169083600781111561250157fe5b02179055503373ffffffffffffffffffffffffffffffffffffffff167f881e709e9c64eab74265e31b2c1aa4aa8319919ff22da59312692d6762744a51601260009054906101000a900460ff166040518082600781111561255e57fe5b60ff16815260200191505060405180910390a2565b600160009054906101000a900473ffffffffffffffffffffffffffffffffffffffff1673ffffffffffffffffffffffffffffffffffffffff163373ffffffffffffffffffffffffffffffffffffffff161415156125cf57600080fd5b6000809054906101000a900473ffffffffffffffffffffffffffffffffffffffff1673ffffffffffffffffffffffffffffffffffffffff168173ffffffffffffffffffffffffffffffffffffffff166376b126266040518163ffffffff167c0100000000000000000000000000000000000000000000000000000000028152600401602060405180830381600087803b15801561266b57600080fd5b505af115801561267f573d6000803e3d6000fd5b505050506040513d602081101561269557600080fd5b810190808051906020019092919050505073ffffffffffffffffffffffffffffffffffffffff161415156126c857600080fd5b806000806101000a81548173ffffffffffffffffffffffffffffffffffffffff021916908373ffffffffffffffffffffffffffffffffffffffff1602179055503073ffffffffffffffffffffffffffffffffffffffff166321ca8f616040518163ffffffff167c0100000000000000000000000000000000000000000000000000000000028152600401600060405180830381600087803b15801561276c57600080fd5b505af1158015612780573d6000803e3d6000fd5b505050508073ffffffffffffffffffffffffffffffffffffffff1663140723f06040518163ffffffff167c0100000000000000000000000000000000000000000000000000000000028152600401602060405180830381600087803b1580156127e857600080fd5b505af11580156127fc573d6000803e3d6000fd5b505050506040513d602081101561281257600080fd5b81019080805190602001909291905050506000806101000a81548173ffffffffffffffffffffffffffffffffffffffff021916908373ffffffffffffffffffffffffffffffffffffffff16021790555050565b60608060606000600a600c600d600e54838054600181600116156101000203166002900480601f01602080910402602001604051908101604052809291908181526020018280546001816001161561010002031660029004801561290a5780601f106128df5761010080835404028352916020019161290a565b820191906000526020600020905b8154815290600101906020018083116128ed57829003601f168201915b50505050509350828054600181600116156101000203166002900480601f0160208091040260200160405190810160405280929190818152602001828054600181600116156101000203166002900480156129a65780601f1061297b576101008083540402835291602001916129a6565b820191906000526020600020905b81548152906001019060200180831161298957829003601f168201915b50505050509250818054600181600116156101000203166002900480601f016020809104026020016040519081016040528092919081815260200182805460018160011615610100020316600290048015612a425780601f10612a1757610100808354040283529160200191612a42565b820191906000526020600020905b815481529060010190602001808311612a2557829003601f168201915b50505050509150935093509350935090919293565b600760009054906101000a900473ffffffffffffffffffffffffffffffffffffffff1673ffffffffffffffffffffffffffffffffffffffff163373ffffffffffffffffffffffffffffffffffffffff16141515612b42576040517f08c379a000000000000000000000000000000000000000000000000000000000815260040180806020018281038252602d8152602001807f4f6e6c792064656c697665727920706572736f6e2073686f756c64207564617481526020017f652074686973207374617475730000000000000000000000000000000000000081525060400191505060405180910390fd5b6006601260006101000a81548160ff02191690836007811115612b6157fe5b02179055503373ffffffffffffffffffffffffffffffffffffffff167f881e709e9c64eab74265e31b2c1aa4aa8319919ff22da59312692d6762744a51601260009054906101000a900460ff1660405180826007811115612bbe57fe5b60ff16815260200191505060405180910390a2565b6000600654905090565b600160009054906101000a900473ffffffffffffffffffffffffffffffffffffffff1673ffffffffffffffffffffffffffffffffffffffff163373ffffffffffffffffffffffffffffffffffffffff16141515612c3957600080fd5b601260019054906101000a900460ff161515612cbd576040517f08c379a000000000000000000000000000000000000000000000000000000000815260040180806020018281038252601a8152602001807f436f6e74726163742073686f756c64206265206163746976652000000000000081525060200191505060405180910390fd5b6000601260016101000a81548160ff021916908315150217905550565b6001806007811115612ce857fe5b601260009054906101000a900460ff166007811115612d0357fe5b141515612d9e576040517f08c379a00000000000000000000000000000000000000000000000000000000081526004018080602001828103825260278152602001807f46756e6374696f6e2063616e6e6f742062652063616c6c65642061742074686981526020017f732074696d652e0000000000000000000000000000000000000000000000000081525060400191505060405180910390fd5b60c88251101515612e17576040517f08c379a00000000000000000000000000000000000000000000000000000000081526004018080602001828103825260198152602001807f696e70757420737472696e6720697320746f6f206c617267650000000000000081525060200191505060405180910390fd5b33600460006101000a81548173ffffffffffffffffffffffffffffffffffffffff021916908373ffffffffffffffffffffffffffffffffffffffff1602179055508160059080519060200190612e6e929190612f8a565b506002601260006101000a81548160ff02191690836007811115612e8e57fe5b0217905550600460009054906101000a900473ffffffffffffffffffffffffffffffffffffffff1673ffffffffffffffffffffffffffffffffffffffff167fb039c5c2b112c58fcc00cb48ecd3bc744ecf08f2416cead70aeb4ef68719603560056040518080602001828103825283818154600181600116156101000203166002900481526020019150805460018160011615610100020316600290048015612f785780601f10612f4d57610100808354040283529160200191612f78565b820191906000526020600020905b815481529060010190602001808311612f5b57829003601f168201915b50509250505060405180910390a25050565b828054600181600116156101000203166002900490600052602060002090601f016020900481019282601f10612fcb57805160ff1916838001178555612ff9565b82800160010185558215612ff9579182015b82811115612ff8578251825591602001919060010190612fdd565b5b509050613006919061300a565b5090565b61302c91905b80821115613028576000816000905550600101613010565b5090565b905600a165627a7a72305820c01be13c2a3669fe693ceb427e5016478e690ca2e51859f735c8a2d5564403270029",
  "source": "/**\n * @description  FoodForAll upgrade contract\n * @author SijeshP <sijesh.poovalapil@gmail.com>\n * @dev purpose of this contract to demonstrat the capability of upgrading the already deployed base contract and\n * deploy upgraded contract through factory for future. 2 kind of upgrade features has been tested.\n *(ref: upgrade test file) by implementing delegate proxy apprch, we can do both inplace upgrade of  \n * already deployed contract with data migration and deploy upgraded contract through factory for the \n * future purpose.\n */\npragma solidity ^0.4.11;\nimport \"./FfaCampaign.sol\";\n\n\n/**\n * @title FoodForAllCampaign2DataInternal - upgraded version of base contract data contract.\n * @dev Upgrade the contract to implement contract life status ( active/ deactive )\n * aligned storage layout of the base contract and added one more date field\n */\ncontract FoodForAllCampaign2DataInternal is FoodForAllCampaignDataInternal {\n    bool internal contractLifeStatus;  \n}\n\n\n/**\n * @title FoodForAllCampaign2Proxy - upgraded version of base contract initialisation logic\n * @dev Upgrade the contract to implement revised logic\n */\ncontract FoodForAllCampaign2Proxy is FoodForAllCampaignProxy, FoodForAllCampaign2DataInternal {\n    constructor (\n        address _masterContractAddr, \n        address _contractOwner,\n        address _requesterAddress,\n        string _requesterName, \n        uint _quantity, \n        uint _deliverytime, \n        string _deliveryPointContactNo, \n        string _locationAddr,\n        uint _campaingIndex\n    )\n        public \n        FoodForAllCampaignProxy (\n            _masterContractAddr, \n            _contractOwner,\n            _requesterAddress,\n            _requesterName, \n            _quantity, \n            _deliverytime, \n            _deliveryPointContactNo, \n            _locationAddr,\n            _campaingIndex\n        )\n\n    {\n        // set contract is active. Once the food is delivererd set status to false\n        contractLifeStatus = true;\n    }\n}\n\n/**\n * @title FoodForAllCampaign2 - upgraded version of base contract main function logic\n * @dev Upgrade the contract to implement revised logic\n */\ncontract FoodForAllCampaign2 is FoodForAllCampaign,FoodForAllCampaign2DataInternal {\n    \n    // function for changing contract status\n    function makeContractInactive() \n        public \n        onlyUpgradeOwner()\n    {\n        require(contractLifeStatus,\"Contract should be active \");\n        contractLifeStatus = false;\n    }\n    \n    // updating the base contract logic with newely avialble parameter.\n    function contributeByProduceFood (string _producerName) public {\n        require(contractLifeStatus,\"Contract should be active \");\n        super.contributeByProduceFood(_producerName);\n    }\n\n    function getContractLifeStatus() public view returns(bool) {\n        return contractLifeStatus;\n    }\n\n}\n\n/**\n * @title FoodForAllCampaign2 - upgraded version of base contract main function logic\n * @dev update interface describes how storage should be migrated from a FoodForAllCampaign\n * compatable to data set to FoodForAllCampaign2 \n */\ncontract FoodForAllCampaign2Update is\n    FoodForAllCampaignDataInternal,\n    FoodForAllCampaign2DataInternal,\n    Update\n{\n    FoodForAllCampaign internal ffaCampaign;\n    FoodForAllCampaign2 internal ffaCampaign2;\n\n    // construct sets old and upgrade versions of the contract.\n    constructor(FoodForAllCampaign _ffaCampaign, FoodForAllCampaign2 _ffaCampaign2)\n        public\n        ProxyOwnableData(0)\n    {\n        ffaCampaign = _ffaCampaign;\n        ffaCampaign2 = _ffaCampaign2;\n    }\n\n    function implementationBefore() external view returns (address)\n    {\n        return ffaCampaign;\n    }\n    \n    function implementationAfter() external view returns (address) {\n        return ffaCampaign2;\n    }\n    \n    // updating the data value in the upgraded contract.\n    function migrateData() external {\n        contractLifeStatus = true;\n    }\n}\n",
  "sourcePath": "/Users/sijeshp/ConsensysAcademy/Code/Projects/projectSubmit/FoodForAll/contracts/UpgradedCampaign.sol",
  "compiler": {
    "name": "solc",
    "version": "0.4.24+commit.e67f0147.Emscripten.clang"
  },
  "schemaVersion": "2.0.0",
  "updatedAt": "2018-08-23T13:34:27.978Z"
}