{
  "contractName": "FoodForAllCampaign",
  "abi": [
    {
      "constant": false,
      "inputs": [
        {
          "name": "newupgradeOwner",
          "type": "address"
        }
      ],
      "name": "setOwner",
      "outputs": [],
      "payable": false,
      "stateMutability": "nonpayable",
      "type": "function"
    },
    {
      "constant": false,
      "inputs": [
        {
          "name": "update",
          "type": "address"
        }
      ],
      "name": "updateMasterCopy",
      "outputs": [],
      "payable": false,
      "stateMutability": "nonpayable",
      "type": "function"
    },
    {
      "anonymous": false,
      "inputs": [
        {
          "indexed": true,
          "name": "ContractOwner",
          "type": "address"
        },
        {
          "indexed": true,
          "name": "requesterAddress",
          "type": "address"
        },
        {
          "indexed": true,
          "name": "quantity",
          "type": "uint256"
        },
        {
          "indexed": false,
          "name": "_locationAddr",
          "type": "string"
        }
      ],
      "name": "FoodForAllCampaignProxyCreated",
      "type": "event"
    },
    {
      "anonymous": false,
      "inputs": [
        {
          "indexed": true,
          "name": "producerAddress",
          "type": "address"
        },
        {
          "indexed": false,
          "name": "producerName",
          "type": "string"
        }
      ],
      "name": "FoodProducerReady",
      "type": "event"
    },
    {
      "anonymous": false,
      "inputs": [
        {
          "indexed": true,
          "name": "deliveryPersonAddress",
          "type": "address"
        },
        {
          "indexed": false,
          "name": "deliveryPersonName",
          "type": "string"
        }
      ],
      "name": "FoodDeliveryPersonReady",
      "type": "event"
    },
    {
      "anonymous": false,
      "inputs": [
        {
          "indexed": true,
          "name": "statusModifier",
          "type": "address"
        },
        {
          "indexed": false,
          "name": "newStatus",
          "type": "uint8"
        }
      ],
      "name": "FfaStatusChange",
      "type": "event"
    },
    {
      "anonymous": false,
      "inputs": [
        {
          "indexed": true,
          "name": "producer",
          "type": "address"
        },
        {
          "indexed": false,
          "name": "expectedProdReadyTime",
          "type": "uint256"
        }
      ],
      "name": "FoodProductionReadyTimeSet",
      "type": "event"
    },
    {
      "anonymous": false,
      "inputs": [
        {
          "indexed": true,
          "name": "deliveryPerson",
          "type": "address"
        },
        {
          "indexed": false,
          "name": "deliveryPickTime",
          "type": "uint256"
        }
      ],
      "name": "FoodDeliveryPickUpTimeSet",
      "type": "event"
    },
    {
      "constant": false,
      "inputs": [
        {
          "name": "_producerName",
          "type": "string"
        }
      ],
      "name": "contributeByProduceFood",
      "outputs": [],
      "payable": false,
      "stateMutability": "nonpayable",
      "type": "function"
    },
    {
      "constant": false,
      "inputs": [
        {
          "name": "_deiverPerName",
          "type": "string"
        }
      ],
      "name": "contributeByDeliverFood",
      "outputs": [],
      "payable": false,
      "stateMutability": "nonpayable",
      "type": "function"
    },
    {
      "constant": false,
      "inputs": [
        {
          "name": "_productionReadyTime",
          "type": "uint256"
        }
      ],
      "name": "setFfaExpectedProductionReadyTime",
      "outputs": [],
      "payable": false,
      "stateMutability": "nonpayable",
      "type": "function"
    },
    {
      "constant": false,
      "inputs": [
        {
          "name": "_deliveryPickTime",
          "type": "uint256"
        }
      ],
      "name": "setFfaDeliveryPickTime",
      "outputs": [],
      "payable": false,
      "stateMutability": "nonpayable",
      "type": "function"
    },
    {
      "constant": false,
      "inputs": [],
      "name": "setFoodReadyForDelivery",
      "outputs": [],
      "payable": false,
      "stateMutability": "nonpayable",
      "type": "function"
    },
    {
      "constant": false,
      "inputs": [],
      "name": "setFoodOutForDelivery",
      "outputs": [],
      "payable": false,
      "stateMutability": "nonpayable",
      "type": "function"
    },
    {
      "constant": false,
      "inputs": [],
      "name": "setFoodDelivered",
      "outputs": [],
      "payable": false,
      "stateMutability": "nonpayable",
      "type": "function"
    },
    {
      "constant": false,
      "inputs": [],
      "name": "setFoodDeliveryAcknowledge",
      "outputs": [],
      "payable": false,
      "stateMutability": "nonpayable",
      "type": "function"
    },
    {
      "constant": false,
      "inputs": [
        {
          "name": "_description",
          "type": "string"
        }
      ],
      "name": "setFfaCampaignRequirementDescription",
      "outputs": [],
      "payable": false,
      "stateMutability": "nonpayable",
      "type": "function"
    },
    {
      "constant": false,
      "inputs": [
        {
          "name": "_ifpsMediaLink",
          "type": "string"
        }
      ],
      "name": "setFfaCampaignMedia",
      "outputs": [],
      "payable": false,
      "stateMutability": "nonpayable",
      "type": "function"
    },
    {
      "constant": false,
      "inputs": [
        {
          "name": "_status",
          "type": "uint8"
        }
      ],
      "name": "setStatus",
      "outputs": [],
      "payable": false,
      "stateMutability": "nonpayable",
      "type": "function"
    },
    {
      "constant": true,
      "inputs": [],
      "name": "getFfaStatus",
      "outputs": [
        {
          "name": "",
          "type": "uint8"
        }
      ],
      "payable": false,
      "stateMutability": "view",
      "type": "function"
    },
    {
      "constant": true,
      "inputs": [],
      "name": "getFfaRequesterAddress",
      "outputs": [
        {
          "name": "",
          "type": "address"
        }
      ],
      "payable": false,
      "stateMutability": "view",
      "type": "function"
    },
    {
      "constant": true,
      "inputs": [],
      "name": "getFfaRequesterName",
      "outputs": [
        {
          "name": "",
          "type": "string"
        }
      ],
      "payable": false,
      "stateMutability": "view",
      "type": "function"
    },
    {
      "constant": true,
      "inputs": [],
      "name": "getFfaRequesterSummary",
      "outputs": [
        {
          "name": "",
          "type": "address"
        },
        {
          "name": "",
          "type": "string"
        }
      ],
      "payable": false,
      "stateMutability": "view",
      "type": "function"
    },
    {
      "constant": true,
      "inputs": [],
      "name": "getFfaProducerAddress",
      "outputs": [
        {
          "name": "",
          "type": "address"
        }
      ],
      "payable": false,
      "stateMutability": "view",
      "type": "function"
    },
    {
      "constant": true,
      "inputs": [
        {
          "name": "",
          "type": "string"
        }
      ],
      "name": "getFfaProducerName",
      "outputs": [
        {
          "name": "",
          "type": "string"
        }
      ],
      "payable": false,
      "stateMutability": "view",
      "type": "function"
    },
    {
      "constant": true,
      "inputs": [],
      "name": "getFfaExpectedProductionReadyTime",
      "outputs": [
        {
          "name": "",
          "type": "uint256"
        }
      ],
      "payable": false,
      "stateMutability": "view",
      "type": "function"
    },
    {
      "constant": true,
      "inputs": [],
      "name": "getFfaProducerSummary",
      "outputs": [
        {
          "name": "",
          "type": "address"
        },
        {
          "name": "",
          "type": "string"
        },
        {
          "name": "",
          "type": "uint256"
        }
      ],
      "payable": false,
      "stateMutability": "view",
      "type": "function"
    },
    {
      "constant": true,
      "inputs": [],
      "name": "getFfaDeliveryPersonAddress",
      "outputs": [
        {
          "name": "",
          "type": "address"
        }
      ],
      "payable": false,
      "stateMutability": "view",
      "type": "function"
    },
    {
      "constant": true,
      "inputs": [],
      "name": "getFfaDeliveryPersonName",
      "outputs": [
        {
          "name": "",
          "type": "string"
        }
      ],
      "payable": false,
      "stateMutability": "view",
      "type": "function"
    },
    {
      "constant": false,
      "inputs": [],
      "name": "getFfaDeliveryPickTime",
      "outputs": [
        {
          "name": "",
          "type": "uint256"
        }
      ],
      "payable": false,
      "stateMutability": "nonpayable",
      "type": "function"
    },
    {
      "constant": true,
      "inputs": [],
      "name": "getFfaDeliveryPersonSummary",
      "outputs": [
        {
          "name": "",
          "type": "address"
        },
        {
          "name": "",
          "type": "string"
        },
        {
          "name": "",
          "type": "uint256"
        }
      ],
      "payable": false,
      "stateMutability": "view",
      "type": "function"
    },
    {
      "constant": true,
      "inputs": [],
      "name": "getFfaDeliverLocationSummary",
      "outputs": [
        {
          "name": "",
          "type": "string"
        },
        {
          "name": "",
          "type": "string"
        },
        {
          "name": "",
          "type": "string"
        },
        {
          "name": "",
          "type": "uint256"
        }
      ],
      "payable": false,
      "stateMutability": "view",
      "type": "function"
    },
    {
      "constant": true,
      "inputs": [],
      "name": "getFfaCampaignMoreInfo",
      "outputs": [
        {
          "name": "",
          "type": "string"
        },
        {
          "name": "",
          "type": "string"
        }
      ],
      "payable": false,
      "stateMutability": "view",
      "type": "function"
    }
  ],
  "bytecode": "0x6080604052600080600160006101000a81548173ffffffffffffffffffffffffffffffffffffffff021916908373ffffffffffffffffffffffffffffffffffffffff16021790555050612e5b806100576000396000f30060806040526004361061015f576000357c0100000000000000000000000000000000000000000000000000000000900463ffffffff1680630f5646e21461016457806313af40351461022e57806329b5c776146102715780632e49d78b146102c85780632fe4e251146102f857806344c59b9e146103f457806349d7c4231461045d5780634fea60891461048857806369400f021461049f5780636e061e99146104b65780636e319162146104ef578063886664561461055857806393f440d8146105e8578063a56bc2401461063f578063a639a04114610696578063b5a753ce146106c3578063b72148d8146106f0578063b889afac146107b3578063c964958e14610843578063d19a9c9614610925578063d2c260e31461098e578063d7bc5f9314610a58578063e8ba6fe014610ac1578063e9f8f12b14610ad8578063ec0be64514610b1b578063f4cfb69f14610c8a578063f5e38de914610ca1575b600080fd5b34801561017057600080fd5b50610179610ccc565b604051808473ffffffffffffffffffffffffffffffffffffffff1673ffffffffffffffffffffffffffffffffffffffff16815260200180602001838152602001828103825284818151815260200191508051906020019080838360005b838110156101f15780820151818401526020810190506101d6565b50505050905090810190601f16801561021e5780820380516001836020036101000a031916815260200191505b5094505050505060405180910390f35b34801561023a57600080fd5b5061026f600480360381019080803573ffffffffffffffffffffffffffffffffffffffff169060200190929190505050610da1565b005b34801561027d57600080fd5b50610286610e41565b604051808273ffffffffffffffffffffffffffffffffffffffff1673ffffffffffffffffffffffffffffffffffffffff16815260200191505060405180910390f35b3480156102d457600080fd5b506102f6600480360381019080803560ff169060200190929190505050610e6b565b005b34801561030457600080fd5b5061030d61101e565b604051808060200180602001838103835285818151815260200191508051906020019080838360005b83811015610351578082015181840152602081019050610336565b50505050905090810190601f16801561037e5780820380516001836020036101000a031916815260200191505b50838103825284818151815260200191508051906020019080838360005b838110156103b757808201518184015260208101905061039c565b50505050905090810190601f1680156103e45780820380516001836020036101000a031916815260200191505b5094505050505060405180910390f35b34801561040057600080fd5b5061045b600480360381019080803590602001908201803590602001908080601f0160208091040260200160405190810160405280939291908181526020018383808284378201915050505050509192919290505050611165565b005b34801561046957600080fd5b50610472611415565b6040518082815260200191505060405180910390f35b34801561049457600080fd5b5061049d61141f565b005b3480156104ab57600080fd5b506104b46115f3565b005b3480156104c257600080fd5b506104cb6117c7565b604051808260078111156104db57fe5b60ff16815260200191505060405180910390f35b3480156104fb57600080fd5b50610556600480360381019080803590602001908201803590602001908080601f01602080910402602001604051908101604052809392919081815260200183838082843782019150505050505091929192905050506117de565b005b34801561056457600080fd5b5061056d611993565b6040518080602001828103825283818151815260200191508051906020019080838360005b838110156105ad578082015181840152602081019050610592565b50505050905090810190601f1680156105da5780820380516001836020036101000a031916815260200191505b509250505060405180910390f35b3480156105f457600080fd5b506105fd611a35565b604051808273ffffffffffffffffffffffffffffffffffffffff1673ffffffffffffffffffffffffffffffffffffffff16815260200191505060405180910390f35b34801561064b57600080fd5b50610654611a5f565b604051808273ffffffffffffffffffffffffffffffffffffffff1673ffffffffffffffffffffffffffffffffffffffff16815260200191505060405180910390f35b3480156106a257600080fd5b506106c160048036038101908080359060200190929190505050611a89565b005b3480156106cf57600080fd5b506106ee60048036038101908080359060200190929190505050611c70565b005b3480156106fc57600080fd5b50610705611e57565b604051808373ffffffffffffffffffffffffffffffffffffffff1673ffffffffffffffffffffffffffffffffffffffff16815260200180602001828103825283818151815260200191508051906020019080838360005b8381101561077757808201518184015260208101905061075c565b50505050905090810190601f1680156107a45780820380516001836020036101000a031916815260200191505b50935050505060405180910390f35b3480156107bf57600080fd5b506107c8611f24565b6040518080602001828103825283818151815260200191508051906020019080838360005b838110156108085780820151818401526020810190506107ed565b50505050905090810190601f1680156108355780820380516001836020036101000a031916815260200191505b509250505060405180910390f35b34801561084f57600080fd5b506108aa600480360381019080803590602001908201803590602001908080601f0160208091040260200160405190810160405280939291908181526020018383808284378201915050505050509192919290505050611fc6565b6040518080602001828103825283818151815260200191508051906020019080838360005b838110156108ea5780820151818401526020810190506108cf565b50505050905090810190601f1680156109175780820380516001836020036101000a031916815260200191505b509250505060405180910390f35b34801561093157600080fd5b5061098c600480360381019080803590602001908201803590602001908080601f016020809104026020016040519081016040528093929190818152602001838380828437820191505050505050919291929050505061206a565b005b34801561099a57600080fd5b506109a361231a565b604051808473ffffffffffffffffffffffffffffffffffffffff1673ffffffffffffffffffffffffffffffffffffffff16815260200180602001838152602001828103825284818151815260200191508051906020019080838360005b83811015610a1b578082015181840152602081019050610a00565b50505050905090810190601f168015610a485780820380516001836020036101000a031916815260200191505b5094505050505060405180910390f35b348015610a6457600080fd5b50610abf600480360381019080803590602001908201803590602001908080601f01602080910402602001604051908101604052809392919081815260200183838082843782019150505050505091929192905050506123ef565b005b348015610acd57600080fd5b50610ad66125a4565b005b348015610ae457600080fd5b50610b19600480360381019080803573ffffffffffffffffffffffffffffffffffffffff169060200190929190505050612720565b005b348015610b2757600080fd5b50610b30612a12565b60405180806020018060200180602001858152602001848103845288818151815260200191508051906020019080838360005b83811015610b7e578082015181840152602081019050610b63565b50505050905090810190601f168015610bab5780820380516001836020036101000a031916815260200191505b50848103835287818151815260200191508051906020019080838360005b83811015610be4578082015181840152602081019050610bc9565b50505050905090810190601f168015610c115780820380516001836020036101000a031916815260200191505b50848103825286818151815260200191508051906020019080838360005b83811015610c4a578082015181840152602081019050610c2f565b50505050905090810190601f168015610c775780820380516001836020036101000a031916815260200191505b5097505050505050505060405180910390f35b348015610c9657600080fd5b50610c9f612c04565b005b348015610cad57600080fd5b50610cb6612d80565b6040518082815260200191505060405180910390f35b600060606000600760009054906101000a900473ffffffffffffffffffffffffffffffffffffffff166008600954818054600181600116156101000203166002900480601f016020809104026020016040519081016040528092919081815260200182805460018160011615610100020316600290048015610d8f5780601f10610d6457610100808354040283529160200191610d8f565b820191906000526020600020905b815481529060010190602001808311610d7257829003601f168201915b50505050509150925092509250909192565b600160009054906101000a900473ffffffffffffffffffffffffffffffffffffffff1673ffffffffffffffffffffffffffffffffffffffff163373ffffffffffffffffffffffffffffffffffffffff16141515610dfd57600080fd5b80600160006101000a81548173ffffffffffffffffffffffffffffffffffffffff021916908373ffffffffffffffffffffffffffffffffffffffff16021790555050565b6000600460009054906101000a900473ffffffffffffffffffffffffffffffffffffffff16905090565b600160009054906101000a900473ffffffffffffffffffffffffffffffffffffffff1673ffffffffffffffffffffffffffffffffffffffff163373ffffffffffffffffffffffffffffffffffffffff16141515610ec757600080fd5b60006007811115610ed457fe5b816007811115610ee057fe5b118015610f025750600780811115610ef457fe5b816007811115610f0057fe5b105b1515610f9c576040517f08c379a00000000000000000000000000000000000000000000000000000000081526004018080602001828103825260278152602001807f436f6e7472616374207374617475732073686f756c642062652077697468206981526020017f6e206c696d69740000000000000000000000000000000000000000000000000081525060400191505060405180910390fd5b80601260006101000a81548160ff02191690836007811115610fba57fe5b02179055503373ffffffffffffffffffffffffffffffffffffffff167f881e709e9c64eab74265e31b2c1aa4aa8319919ff22da59312692d6762744a51826040518082600781111561100857fe5b60ff16815260200191505060405180910390a250565b606080600f6010818054600181600116156101000203166002900480601f0160208091040260200160405190810160405280929190818152602001828054600181600116156101000203166002900480156110ba5780601f1061108f576101008083540402835291602001916110ba565b820191906000526020600020905b81548152906001019060200180831161109d57829003601f168201915b50505050509150808054600181600116156101000203166002900480601f0160208091040260200160405190810160405280929190818152602001828054600181600116156101000203166002900480156111565780601f1061112b57610100808354040283529160200191611156565b820191906000526020600020905b81548152906001019060200180831161113957829003601f168201915b50505050509050915091509091565b600280600781111561117357fe5b601260009054906101000a900460ff16600781111561118e57fe5b141515611229576040517f08c379a00000000000000000000000000000000000000000000000000000000081526004018080602001828103825260278152602001807f46756e6374696f6e2063616e6e6f742062652063616c6c65642061742074686981526020017f732074696d652e0000000000000000000000000000000000000000000000000081525060400191505060405180910390fd5b60c882511015156112a2576040517f08c379a00000000000000000000000000000000000000000000000000000000081526004018080602001828103825260198152602001807f696e70757420737472696e6720697320746f6f206c617267650000000000000081525060200191505060405180910390fd5b33600760006101000a81548173ffffffffffffffffffffffffffffffffffffffff021916908373ffffffffffffffffffffffffffffffffffffffff16021790555081600890805190602001906112f9929190612d8a565b506003601260006101000a81548160ff0219169083600781111561131957fe5b0217905550600760009054906101000a900473ffffffffffffffffffffffffffffffffffffffff1673ffffffffffffffffffffffffffffffffffffffff167f17cbc1cf03346c0e3f004a17b307f3f4056e8e0a27ed6c5fc48884f231fb834a600860405180806020018281038252838181546001816001161561010002031660029004815260200191508054600181600116156101000203166002900480156114035780601f106113d857610100808354040283529160200191611403565b820191906000526020600020905b8154815290600101906020018083116113e657829003601f168201915b50509250505060405180910390a25050565b6000600954905090565b600260009054906101000a900473ffffffffffffffffffffffffffffffffffffffff1673ffffffffffffffffffffffffffffffffffffffff163373ffffffffffffffffffffffffffffffffffffffff1614806114c85750600160009054906101000a900473ffffffffffffffffffffffffffffffffffffffff1673ffffffffffffffffffffffffffffffffffffffff163373ffffffffffffffffffffffffffffffffffffffff16145b1515611562576040517f08c379a00000000000000000000000000000000000000000000000000000000081526004018080602001828103825260248152602001807f4f6e6c792064656c69766572795065722073686f756c6420736574207468652081526020017f74696d650000000000000000000000000000000000000000000000000000000081525060400191505060405180910390fd5b6007601260006101000a81548160ff0219169083600781111561158157fe5b02179055503373ffffffffffffffffffffffffffffffffffffffff167f881e709e9c64eab74265e31b2c1aa4aa8319919ff22da59312692d6762744a51601260009054906101000a900460ff16604051808260078111156115de57fe5b60ff16815260200191505060405180910390a2565b600460009054906101000a900473ffffffffffffffffffffffffffffffffffffffff1673ffffffffffffffffffffffffffffffffffffffff163373ffffffffffffffffffffffffffffffffffffffff16148061169c5750600760009054906101000a900473ffffffffffffffffffffffffffffffffffffffff1673ffffffffffffffffffffffffffffffffffffffff163373ffffffffffffffffffffffffffffffffffffffff16145b1515611736576040517f08c379a000000000000000000000000000000000000000000000000000000000815260040180806020018281038252603a8152602001807f6f6e6c792070726f6475636572206f722064656c697665727920706572736f6e81526020017f2073686f756c642075706461746520746869732073746174757300000000000081525060400191505060405180910390fd5b6005601260006101000a81548160ff0219169083600781111561175557fe5b02179055503373ffffffffffffffffffffffffffffffffffffffff167f881e709e9c64eab74265e31b2c1aa4aa8319919ff22da59312692d6762744a51601260009054906101000a900460ff16604051808260078111156117b257fe5b60ff16815260200191505060405180910390a2565b6000601260009054906101000a900460ff16905090565b600260009054906101000a900473ffffffffffffffffffffffffffffffffffffffff1673ffffffffffffffffffffffffffffffffffffffff163373ffffffffffffffffffffffffffffffffffffffff1614806118875750600460009054906101000a900473ffffffffffffffffffffffffffffffffffffffff1673ffffffffffffffffffffffffffffffffffffffff163373ffffffffffffffffffffffffffffffffffffffff16145b806118df5750600760009054906101000a900473ffffffffffffffffffffffffffffffffffffffff1673ffffffffffffffffffffffffffffffffffffffff163373ffffffffffffffffffffffffffffffffffffffff16145b1515611979576040517f08c379a00000000000000000000000000000000000000000000000000000000081526004018080602001828103825260348152602001807f4f6e6c7920636f6e74616374207061727469636970616e74732063616e20757081526020017f6461746520746865206465736372697074696f6e00000000000000000000000081525060400191505060405180910390fd5b80600f908051906020019061198f929190612d8a565b5050565b606060038054600181600116156101000203166002900480601f016020809104026020016040519081016040528092919081815260200182805460018160011615610100020316600290048015611a2b5780601f10611a0057610100808354040283529160200191611a2b565b820191906000526020600020905b815481529060010190602001808311611a0e57829003601f168201915b5050505050905090565b6000600260009054906101000a900473ffffffffffffffffffffffffffffffffffffffff16905090565b6000600760009054906101000a900473ffffffffffffffffffffffffffffffffffffffff16905090565b600460009054906101000a900473ffffffffffffffffffffffffffffffffffffffff1673ffffffffffffffffffffffffffffffffffffffff163373ffffffffffffffffffffffffffffffffffffffff16141515611b74576040517f08c379a00000000000000000000000000000000000000000000000000000000081526004018080602001828103825260218152602001807f4f6e6c792070726f64756365722073686f756c6420736574207468652074696d81526020017f650000000000000000000000000000000000000000000000000000000000000081525060400191505060405180910390fd5b62278d00420181101515611c16576040517f08c379a00000000000000000000000000000000000000000000000000000000081526004018080602001828103825260338152602001807f6578706563657465642070726f642072656164792074696d652073686f756c6481526020017f206265207769746820696e20333020646179730000000000000000000000000081525060400191505060405180910390fd5b806006819055503373ffffffffffffffffffffffffffffffffffffffff167f7368f8aba69fa556f023ffeb2367d035eba35e0505509588bea6885d01f3c3d46006546040518082815260200191505060405180910390a250565b600760009054906101000a900473ffffffffffffffffffffffffffffffffffffffff1673ffffffffffffffffffffffffffffffffffffffff163373ffffffffffffffffffffffffffffffffffffffff16141515611d5b576040517f08c379a00000000000000000000000000000000000000000000000000000000081526004018080602001828103825260248152602001807f4f6e6c792064656c69766572795065722073686f756c6420736574207468652081526020017f74696d650000000000000000000000000000000000000000000000000000000081525060400191505060405180910390fd5b62278d00420181101515611dfd576040517f08c379a00000000000000000000000000000000000000000000000000000000081526004018080602001828103825260278152602001807f64656c69766572792074696d652073686f756c64206265207769746820696e2081526020017f333020646179730000000000000000000000000000000000000000000000000081525060400191505060405180910390fd5b806009819055503373ffffffffffffffffffffffffffffffffffffffff167f74a405ccb961e5fb01ece03cb2f38754dfca2fe8f2c8ea2a79e29f63ce47c4c56009546040518082815260200191505060405180910390a250565b60006060600260009054906101000a900473ffffffffffffffffffffffffffffffffffffffff166003808054600181600116156101000203166002900480601f016020809104026020016040519081016040528092919081815260200182805460018160011615610100020316600290048015611f155780601f10611eea57610100808354040283529160200191611f15565b820191906000526020600020905b815481529060010190602001808311611ef857829003601f168201915b50505050509050915091509091565b606060088054600181600116156101000203166002900480601f016020809104026020016040519081016040528092919081815260200182805460018160011615610100020316600290048015611fbc5780601f10611f9157610100808354040283529160200191611fbc565b820191906000526020600020905b815481529060010190602001808311611f9f57829003601f168201915b5050505050905090565b606060058054600181600116156101000203166002900480601f01602080910402602001604051908101604052809291908181526020018280546001816001161561010002031660029004801561205e5780601f106120335761010080835404028352916020019161205e565b820191906000526020600020905b81548152906001019060200180831161204157829003601f168201915b50505050509050919050565b600180600781111561207857fe5b601260009054906101000a900460ff16600781111561209357fe5b14151561212e576040517f08c379a00000000000000000000000000000000000000000000000000000000081526004018080602001828103825260278152602001807f46756e6374696f6e2063616e6e6f742062652063616c6c65642061742074686981526020017f732074696d652e0000000000000000000000000000000000000000000000000081525060400191505060405180910390fd5b60c882511015156121a7576040517f08c379a00000000000000000000000000000000000000000000000000000000081526004018080602001828103825260198152602001807f696e70757420737472696e6720697320746f6f206c617267650000000000000081525060200191505060405180910390fd5b33600460006101000a81548173ffffffffffffffffffffffffffffffffffffffff021916908373ffffffffffffffffffffffffffffffffffffffff16021790555081600590805190602001906121fe929190612d8a565b506002601260006101000a81548160ff0219169083600781111561221e57fe5b0217905550600460009054906101000a900473ffffffffffffffffffffffffffffffffffffffff1673ffffffffffffffffffffffffffffffffffffffff167fb039c5c2b112c58fcc00cb48ecd3bc744ecf08f2416cead70aeb4ef687196035600560405180806020018281038252838181546001816001161561010002031660029004815260200191508054600181600116156101000203166002900480156123085780601f106122dd57610100808354040283529160200191612308565b820191906000526020600020905b8154815290600101906020018083116122eb57829003601f168201915b50509250505060405180910390a25050565b600060606000600460009054906101000a900473ffffffffffffffffffffffffffffffffffffffff166005600654818054600181600116156101000203166002900480601f0160208091040260200160405190810160405280929190818152602001828054600181600116156101000203166002900480156123dd5780601f106123b2576101008083540402835291602001916123dd565b820191906000526020600020905b8154815290600101906020018083116123c057829003601f168201915b50505050509150925092509250909192565b600260009054906101000a900473ffffffffffffffffffffffffffffffffffffffff1673ffffffffffffffffffffffffffffffffffffffff163373ffffffffffffffffffffffffffffffffffffffff1614806124985750600460009054906101000a900473ffffffffffffffffffffffffffffffffffffffff1673ffffffffffffffffffffffffffffffffffffffff163373ffffffffffffffffffffffffffffffffffffffff16145b806124f05750600760009054906101000a900473ffffffffffffffffffffffffffffffffffffffff1673ffffffffffffffffffffffffffffffffffffffff163373ffffffffffffffffffffffffffffffffffffffff16145b151561258a576040517f08c379a00000000000000000000000000000000000000000000000000000000081526004018080602001828103825260348152602001807f4f6e6c7920636f6e74616374207061727469636970616e74732063616e20757081526020017f6461746520746865206465736372697074696f6e00000000000000000000000081525060400191505060405180910390fd5b80601090805190602001906125a0929190612d8a565b5050565b600460009054906101000a900473ffffffffffffffffffffffffffffffffffffffff1673ffffffffffffffffffffffffffffffffffffffff163373ffffffffffffffffffffffffffffffffffffffff1614151561268f576040517f08c379a00000000000000000000000000000000000000000000000000000000081526004018080602001828103825260268152602001807f4f6e6c792070726f64756365722073686f756c6420756461746520746869732081526020017f737461747573000000000000000000000000000000000000000000000000000081525060400191505060405180910390fd5b6004601260006101000a81548160ff021916908360078111156126ae57fe5b02179055503373ffffffffffffffffffffffffffffffffffffffff167f881e709e9c64eab74265e31b2c1aa4aa8319919ff22da59312692d6762744a51601260009054906101000a900460ff166040518082600781111561270b57fe5b60ff16815260200191505060405180910390a2565b600160009054906101000a900473ffffffffffffffffffffffffffffffffffffffff1673ffffffffffffffffffffffffffffffffffffffff163373ffffffffffffffffffffffffffffffffffffffff1614151561277c57600080fd5b6000809054906101000a900473ffffffffffffffffffffffffffffffffffffffff1673ffffffffffffffffffffffffffffffffffffffff168173ffffffffffffffffffffffffffffffffffffffff166376b126266040518163ffffffff167c0100000000000000000000000000000000000000000000000000000000028152600401602060405180830381600087803b15801561281857600080fd5b505af115801561282c573d6000803e3d6000fd5b505050506040513d602081101561284257600080fd5b810190808051906020019092919050505073ffffffffffffffffffffffffffffffffffffffff1614151561287557600080fd5b806000806101000a81548173ffffffffffffffffffffffffffffffffffffffff021916908373ffffffffffffffffffffffffffffffffffffffff1602179055503073ffffffffffffffffffffffffffffffffffffffff166321ca8f616040518163ffffffff167c0100000000000000000000000000000000000000000000000000000000028152600401600060405180830381600087803b15801561291957600080fd5b505af115801561292d573d6000803e3d6000fd5b505050508073ffffffffffffffffffffffffffffffffffffffff1663140723f06040518163ffffffff167c0100000000000000000000000000000000000000000000000000000000028152600401602060405180830381600087803b15801561299557600080fd5b505af11580156129a9573d6000803e3d6000fd5b505050506040513d60208110156129bf57600080fd5b81019080805190602001909291905050506000806101000a81548173ffffffffffffffffffffffffffffffffffffffff021916908373ffffffffffffffffffffffffffffffffffffffff16021790555050565b60608060606000600a600c600d600e54838054600181600116156101000203166002900480601f016020809104026020016040519081016040528092919081815260200182805460018160011615610100020316600290048015612ab75780601f10612a8c57610100808354040283529160200191612ab7565b820191906000526020600020905b815481529060010190602001808311612a9a57829003601f168201915b50505050509350828054600181600116156101000203166002900480601f016020809104026020016040519081016040528092919081815260200182805460018160011615610100020316600290048015612b535780601f10612b2857610100808354040283529160200191612b53565b820191906000526020600020905b815481529060010190602001808311612b3657829003601f168201915b50505050509250818054600181600116156101000203166002900480601f016020809104026020016040519081016040528092919081815260200182805460018160011615610100020316600290048015612bef5780601f10612bc457610100808354040283529160200191612bef565b820191906000526020600020905b815481529060010190602001808311612bd257829003601f168201915b50505050509150935093509350935090919293565b600760009054906101000a900473ffffffffffffffffffffffffffffffffffffffff1673ffffffffffffffffffffffffffffffffffffffff163373ffffffffffffffffffffffffffffffffffffffff16141515612cef576040517f08c379a000000000000000000000000000000000000000000000000000000000815260040180806020018281038252602d8152602001807f4f6e6c792064656c697665727920706572736f6e2073686f756c64207564617481526020017f652074686973207374617475730000000000000000000000000000000000000081525060400191505060405180910390fd5b6006601260006101000a81548160ff02191690836007811115612d0e57fe5b02179055503373ffffffffffffffffffffffffffffffffffffffff167f881e709e9c64eab74265e31b2c1aa4aa8319919ff22da59312692d6762744a51601260009054906101000a900460ff1660405180826007811115612d6b57fe5b60ff16815260200191505060405180910390a2565b6000600654905090565b828054600181600116156101000203166002900490600052602060002090601f016020900481019282601f10612dcb57805160ff1916838001178555612df9565b82800160010185558215612df9579182015b82811115612df8578251825591602001919060010190612ddd565b5b509050612e069190612e0a565b5090565b612e2c91905b80821115612e28576000816000905550600101612e10565b5090565b905600a165627a7a72305820543f2e98407f0d25c180b19b76320029246c9313f1c8aa4693a06e43b31dd5990029",
  "source": "/**\n * @description  FoodForAll base contract\n * @author SijeshP <sijesh.poovalapil@gmail.com>\n * @dev The purpse of this contract is to create a decentralised food distribution system\n * for the people who are struggling to get for food to stay alive.\n * One side, there are lot of food wastage and the other side people are hungry in the same city/place.\n * Many hotels/houses throwing the food after lunch/dinner and people are dying\n * Those who are aware about the people who are hungry can create a ffa campaign with \n * location details, quantity of the people required food , approximate time of delivery etc.\n * (any volunteer or the hungry person/group itself can create campaign\n * Once the campaign is init\n ated, volunteers can contribute by supplying food or delivery \n * the supplied food to the desired location. \n * (Please read the draft whitepaper for details - included along with this project submission)\n * @notice The contract has been splitted to seperate data and logic (to make this proxy friendly)\n * by splitting this way, we can deploy the campain contract with minimum cost.Also in place contract\n * upgrade is possible by migrating data. \n * CAUTION: storage must be aligned while writing the upgrade contract.\n */\n\n\npragma solidity ^0.4.11;\n\nimport \"./Utils/Proxy.sol\";\nimport \"./Utils/UpdatableProxy.sol\";\nimport \"zeppelin/contracts/lifecycle/Pausable.sol\";\n\n\n/** @title FoodForAllCampaignHeader \n *  HeaderContract contains all the events and enums. The events has been seperated from the main logic \n *  and data to make the layout proxy-friendly, which will help reduce the cost on contract\n *  creation and make the contract upgradable. \n */\ncontract FoodForAllCampaignHeader {\n    // FFA contract workflow status\n    enum ContractStatus {\n         NotCreated,\n         Requested,\n         ProducerReady, \n         DeliveryPersonReady, \n         FoodReadyForDelivery,\n         FoodOutForDelivery,\n         FoodDelivered,\n         FoodDeliveryAck\n    }\n    event FoodForAllCampaignProxyCreated (\n        address indexed ContractOwner,\n        address indexed requesterAddress,\n        uint indexed quantity,\n        string _locationAddr\n    );\n    event FoodProducerReady(address indexed producerAddress, string producerName);\n    event FoodDeliveryPersonReady(address indexed deliveryPersonAddress, string deliveryPersonName);\n    event FfaStatusChange(address indexed statusModifier,ContractStatus newStatus);\n    event FoodProductionReadyTimeSet(address indexed producer, uint expectedProdReadyTime);\n    event FoodDeliveryPickUpTimeSet(address indexed deliveryPerson, uint deliveryPickTime);\n}\n\n\n/** \n * @title FoodForAllCampaignDataInternal \n *  Contract contains all the data. The data has been seperated from the main logic \n *  to make the layout proxy-friendly and made internal for access restriction.\n *  This data-logic seprtation  will help reduce the cost on contract\n *  creation and make the contract upgradable by aligning the storage layout\n */\ncontract FoodForAllCampaignDataInternal is UpdatableProxyData,FoodForAllCampaignHeader {\n\n    address internal requesterAddress;      // food requester address\n    string internal requesterName;          //  food requester name\n    address internal producerAddress ;      //  food supplier address\n    string internal producerName;           // food supplier name\n    uint internal productionReadyTime;      //  time when the food will be ready \n    address internal deliveryPersonAddress; // delivery persion address\n    string internal deliveryPersonName;     // delivery person name\n    uint internal deliveryPickTime;         // delivery pickup time\n    string internal deliveryPointContactNo; // point of contact for delivery\n    uint internal quantity;                 // quantity of food\n    string internal zipcode ;               // location zipcode\n    string internal locationAddr;           // delivery location address\n    uint internal deliverytime ;            // when the delivery required\n    string internal description ;           // campaign description if any \n    string internal ifpsMediaLink ;         // image can be uploaded \n    uint internal campaignIndex;            // index in the factory contract\n    ContractStatus internal status;         // Contract status \n}\n\n\n/** \n * @title FoodForAllCampaignProxy \n * Contract contains only the constructor.By moving constuctor code out of baseContract(FfaCamapign)\n * we can an avoid the following\n * (a) deploying the base class with the extra initialization method\n * (b) modifying the original contract to make sure state initialization only occurs once and \n *  only on an uninitialized state\n * (c) risking having initialization on an uninitialized contract state hijacked by an unauthorized party \n */\ncontract FoodForAllCampaignProxy is Proxy, FoodForAllCampaignDataInternal {\n    /** @dev FFACampaign contract creation logic moved in to a Proxy. Reduce the contract creation gas.\n      * @param _masterContractAddr ffaCampaign deployed master contract.Proxy creates copy of this\n      * @param _contractOwner Specifies the contract owner. deployer(Coinbase) set as owner by factory by defalut.\n      * @param _requesterAddress new ffa campaign requester. ( msg.sender)\n      * @param _quantity qunatity of the food required\n      * @param _deliverytime when the people need food\n      * @param _deliveryPointContactNo point of contract (phone no.)\n      * @param _locationAddr location address\n      * @param _campaingIndex created campaign index - for front end reference.\n      */\n    constructor (\n        address _masterContractAddr, \n        address _contractOwner,\n        address _requesterAddress,\n        string _requesterName, \n        uint _quantity,                     \n        uint _deliverytime,                 \n        string _deliveryPointContactNo, \n        string _locationAddr,\n        uint _campaingIndex\n    )\n        public \n        Proxy (_masterContractAddr)\n        ProxyOwnableData(_contractOwner)\n    {\n        //user input overflow check\n        require(bytes(_requesterName).length < 100 ,\"input string is too large\");\n        require(bytes(_deliveryPointContactNo).length < 30 ,\"input string is too large\");\n        require(bytes(_locationAddr).length < 250 ,\"input string is too large\");\n        // requester make foodrequest for next 30 days max\n        require (_deliverytime < (now + 30 days),\"food request restricted for next 30 days\");\n        //limiting the user input\n        require (_quantity>0 && _quantity<5000, \"Food quantity limited between 1 to 5000\");\n        requesterAddress = _requesterAddress;\n        requesterName = _requesterName;\n        quantity = _quantity;\n        deliveryPointContactNo = _deliveryPointContactNo;\n        locationAddr = _locationAddr;\n        deliverytime = _deliverytime;\n        campaignIndex = _campaingIndex;\n        status = ContractStatus.Requested;\n        emit FoodForAllCampaignProxyCreated(_contractOwner,_requesterAddress,_quantity,_locationAddr) ;\n    }\n}\n\n\n/** \n * @title FoodForAllCampaign \n * This is base contract. all the data, events , initialisation are implemented out of \n * this contract. This will reduce the deployement cost significantly. \n */\ncontract FoodForAllCampaign is UpdatableProxyImplementation,FoodForAllCampaignDataInternal {\n    \n    // Modifiers\n    modifier atContractStatus(ContractStatus _status) {\n        require(\n            status == _status,\n            \"Function cannot be called at this time.\"\n        );\n        _;\n    }\n\n    //////////////////////////////////////////////////////////\n    ////     Contract State Change -  Set functions     //////\n    //////////////////////////////////////////////////////////\n\n    /** @dev volunteer willing to produce food for the required person.give the committment by call this func .\n      * @param _producerName name of the food producer\n      */\n    function contributeByProduceFood (string _producerName) \n        public \n        atContractStatus(ContractStatus.Requested)\n    {\n        require(bytes(_producerName).length < 200 ,\"input string is too large\");\n        producerAddress = msg.sender;\n        producerName = _producerName;\n        status = ContractStatus.ProducerReady;\n        emit FoodProducerReady(producerAddress, producerName);\n    }\n\n    /** @dev volunteer willing to deliver the food.Give the committment by call this func to deliver the location.\n      * @param _deiverPerName name of the delivery person\n      */\n    function contributeByDeliverFood (string _deiverPerName ) \n        public \n        atContractStatus(ContractStatus.ProducerReady)\n    {\n        require(bytes(_deiverPerName).length < 200 ,\"input string is too large\");\n        deliveryPersonAddress = msg.sender;\n        deliveryPersonName = _deiverPerName; \n        status = ContractStatus.DeliveryPersonReady;\n        emit FoodDeliveryPersonReady(deliveryPersonAddress,deliveryPersonName);\n    }\n\n    /** @dev Producer set the expected time to finish the production, ready for delivery.\n      * @param _productionReadyTime production ready time.\n      */\n    function setFfaExpectedProductionReadyTime(uint _productionReadyTime) public {\n        require(msg.sender == producerAddress,\"Only producer should set the time\");\n        require (_productionReadyTime < (now + 30 days),\"expeceted prod ready time should be with in 30 days\");\n        productionReadyTime = _productionReadyTime;\n        emit FoodProductionReadyTimeSet(msg.sender, productionReadyTime);\n    }\n\n    /** @dev Delivery person set the  delivery pick time,restrict advance set time 20 days\n      * @param _deliveryPickTime production ready time.\n      */\n    function setFfaDeliveryPickTime(uint _deliveryPickTime) public {\n        require(msg.sender == deliveryPersonAddress,\"Only deliveryPer should set the time\");\n        require (_deliveryPickTime < (now + 30 days),\"delivery time should be with in 30 days\");\n        deliveryPickTime = _deliveryPickTime;\n        emit FoodDeliveryPickUpTimeSet(msg.sender, deliveryPickTime);\n    }\n   \n    // set the contract state to food ready for delivery. Restrict for only the prouducer\n    function setFoodReadyForDelivery() public {\n        require(msg.sender == producerAddress,\"Only producer should udate this status\");\n        status = ContractStatus.FoodReadyForDelivery;\n        emit FfaStatusChange(msg.sender,status);\n    }\n\n    // set the contract state to out for delivery . Restrict for only the producer and delivery person\n    function setFoodOutForDelivery() public {\n        require(\n            (msg.sender == producerAddress) || \n            (msg.sender == deliveryPersonAddress),\n            \"only producer or delivery person should update this status\"\n        );\n        status = ContractStatus.FoodOutForDelivery;\n        emit FfaStatusChange(msg.sender,status);\n    }\n\n    // set the contract state to delivered status.Restrict for only the delivery person\n    function setFoodDelivered() public {\n        require(msg.sender == deliveryPersonAddress,\"Only delivery person should udate this status\");\n        status = ContractStatus.FoodDelivered;\n        emit FfaStatusChange(msg.sender,status);\n    }\n\n    // set the contract state to delivery ack. Restrict for only the requester and owner(incase requester not updated.)\n    function setFoodDeliveryAcknowledge() public {\n        require(\n            (msg.sender == requesterAddress) ||\n            (msg.sender == upgradeOwner),\n            \"Only deliveryPer should set the time\");\n        status = ContractStatus.FoodDeliveryAck;\n        emit FfaStatusChange(msg.sender,status);\n    }\n\n    /** @dev Set the campign description, additional info etc. Restrict to campaign participants\n      * @param _description campign description\n      */\n    function setFfaCampaignRequirementDescription(string _description) public {\n        require(\n            msg.sender == requesterAddress ||\n            msg.sender == producerAddress  || \n            msg.sender == deliveryPersonAddress,\n            \"Only contact participants can update the description\"\n        );\n        description = _description;\n    }\n\n    /** @dev Set the campign media link, additional info etc. Restrict to campaign participants\n      * @param _ifpsMediaLink campign media link( photos, video ,only one link per campaign)\n      */\n    function setFfaCampaignMedia (string _ifpsMediaLink) public {\n        require(\n            msg.sender == requesterAddress ||\n            msg.sender == producerAddress  || \n            msg.sender == deliveryPersonAddress,\n            \"Only contact participants can update the description\"\n        );\n        ifpsMediaLink = _ifpsMediaLink;\n    }\n\n    /** @dev Set the campign status based on the workflow. Restrict to campaign participants\n      * @param _status contract statuser\n      * This function is for emergency use. Normal user should not change the status of the contract\n      * with breaking the workflow.\n      */\n    function setStatus(ContractStatus _status) \n        public \n        onlyUpgradeOwner()\n    {\n        require(\n            _status > ContractStatus.NotCreated && \n            _status < ContractStatus.FoodDeliveryAck,\n            \"Contract status should be with in limit\"\n        );\n        status = _status;\n        emit FfaStatusChange(msg.sender,_status);\n    }\n\n\n    ////////////////////////////////////////////////////////\n    ////     Utility Get functions -   /////////////////////\n    ////////////////////////////////////////////////////////\n    \n    // get the current contract status \n    function getFfaStatus() public view returns (ContractStatus) {\n        return status;\n    }\n    // Requester address get functions\n    function getFfaRequesterAddress() public view returns (address) {\n        return requesterAddress;\n    }\n\n    function getFfaRequesterName() public view returns (string) {\n        return requesterName;\n    }\n\n    function getFfaRequesterSummary() public view returns (address ,string) {\n        return(requesterAddress, requesterName);\n    }\n\n    function getFfaProducerAddress() public view returns (address) {\n        return producerAddress;\n    }\n\n    function getFfaProducerName(string  ) public view returns (string){\n        return producerName ;\n    }\n    \n    function getFfaExpectedProductionReadyTime() public view returns (uint) {\n        return productionReadyTime;\n    }\n\n    function getFfaProducerSummary() public view returns (address ,string, uint) {\n        return(producerAddress, producerName, productionReadyTime);\n    }\n\n    function getFfaDeliveryPersonAddress() public view returns (address) {\n        return deliveryPersonAddress;\n    }\n\n    function getFfaDeliveryPersonName() public view returns (string) {\n        return deliveryPersonName;\n    }\n\n    function getFfaDeliveryPickTime() public returns (uint) {\n        return deliveryPickTime;\n    }\n\n    function getFfaDeliveryPersonSummary() public view returns (address ,string, uint) {\n        return(deliveryPersonAddress, deliveryPersonName, deliveryPickTime);\n    }\n\n    function getFfaDeliverLocationSummary() public view returns (string,string,string,uint) {\n        return(deliveryPointContactNo,zipcode,locationAddr,deliverytime);\n    }\n\n    function getFfaCampaignMoreInfo() public view returns (string, string) {\n        return (description,ifpsMediaLink);\n    }\n\n}\n",
  "sourcePath": "/Users/sijeshp/ConsensysAcademy/Code/Projects/projectSubmit/FoodForAll/contracts/FfaCampaign.sol",
  "compiler": {
    "name": "solc",
    "version": "0.4.24+commit.e67f0147.Emscripten.clang"
  },
  "schemaVersion": "2.0.0",
  "updatedAt": "2018-08-23T13:34:28.726Z"
}