{
  "contractName": "FoodForAllCampaign2Update",
  "abi": [
    {
      "inputs": [
        {
          "name": "_ffaCampaign",
          "type": "address"
        },
        {
          "name": "_ffaCampaign2",
          "type": "address"
        }
      ],
      "payable": false,
      "stateMutability": "nonpayable",
      "type": "constructor"
    },
    {
      "anonymous": false,
      "inputs": [
        {
          "indexed": true,
          "name": "ContractOwner",
          "type": "address"
        },
        {
          "indexed": true,
          "name": "requesterAddress",
          "type": "address"
        },
        {
          "indexed": true,
          "name": "quantity",
          "type": "uint256"
        },
        {
          "indexed": false,
          "name": "_locationAddr",
          "type": "string"
        }
      ],
      "name": "FoodForAllCampaignProxyCreated",
      "type": "event"
    },
    {
      "anonymous": false,
      "inputs": [
        {
          "indexed": true,
          "name": "producerAddress",
          "type": "address"
        },
        {
          "indexed": false,
          "name": "producerName",
          "type": "string"
        }
      ],
      "name": "FoodProducerReady",
      "type": "event"
    },
    {
      "anonymous": false,
      "inputs": [
        {
          "indexed": true,
          "name": "deliveryPersonAddress",
          "type": "address"
        },
        {
          "indexed": false,
          "name": "deliveryPersonName",
          "type": "string"
        }
      ],
      "name": "FoodDeliveryPersonReady",
      "type": "event"
    },
    {
      "anonymous": false,
      "inputs": [
        {
          "indexed": true,
          "name": "statusModifier",
          "type": "address"
        },
        {
          "indexed": false,
          "name": "newStatus",
          "type": "uint8"
        }
      ],
      "name": "FfaStatusChange",
      "type": "event"
    },
    {
      "anonymous": false,
      "inputs": [
        {
          "indexed": true,
          "name": "producer",
          "type": "address"
        },
        {
          "indexed": false,
          "name": "expectedProdReadyTime",
          "type": "uint256"
        }
      ],
      "name": "FoodProductionReadyTimeSet",
      "type": "event"
    },
    {
      "anonymous": false,
      "inputs": [
        {
          "indexed": true,
          "name": "deliveryPerson",
          "type": "address"
        },
        {
          "indexed": false,
          "name": "deliveryPickTime",
          "type": "uint256"
        }
      ],
      "name": "FoodDeliveryPickUpTimeSet",
      "type": "event"
    },
    {
      "constant": true,
      "inputs": [],
      "name": "implementationBefore",
      "outputs": [
        {
          "name": "",
          "type": "address"
        }
      ],
      "payable": false,
      "stateMutability": "view",
      "type": "function"
    },
    {
      "constant": true,
      "inputs": [],
      "name": "implementationAfter",
      "outputs": [
        {
          "name": "",
          "type": "address"
        }
      ],
      "payable": false,
      "stateMutability": "view",
      "type": "function"
    },
    {
      "constant": false,
      "inputs": [],
      "name": "migrateData",
      "outputs": [],
      "payable": false,
      "stateMutability": "nonpayable",
      "type": "function"
    }
  ],
  "bytecode": "0x608060405234801561001057600080fd5b506040516040806102d28339810180604052810190808051906020019092919080519060200190929190505050600080600160006101000a81548173ffffffffffffffffffffffffffffffffffffffff021916908373ffffffffffffffffffffffffffffffffffffffff1602179055505081601260026101000a81548173ffffffffffffffffffffffffffffffffffffffff021916908373ffffffffffffffffffffffffffffffffffffffff16021790555080601360006101000a81548173ffffffffffffffffffffffffffffffffffffffff021916908373ffffffffffffffffffffffffffffffffffffffff16021790555050506101be806101146000396000f300608060405260043610610057576000357c0100000000000000000000000000000000000000000000000000000000900463ffffffff168063140723f01461005c57806321ca8f61146100b357806376b12626146100ca575b600080fd5b34801561006857600080fd5b50610071610121565b604051808273ffffffffffffffffffffffffffffffffffffffff1673ffffffffffffffffffffffffffffffffffffffff16815260200191505060405180910390f35b3480156100bf57600080fd5b506100c861014b565b005b3480156100d657600080fd5b506100df610168565b604051808273ffffffffffffffffffffffffffffffffffffffff1673ffffffffffffffffffffffffffffffffffffffff16815260200191505060405180910390f35b6000601360009054906101000a900473ffffffffffffffffffffffffffffffffffffffff16905090565b6001601260016101000a81548160ff021916908315150217905550565b6000601260029054906101000a900473ffffffffffffffffffffffffffffffffffffffff169050905600a165627a7a72305820b5bbb0bae177b09459954072635aa403dae48aa82341731553c3c0c51e2c173b0029",
  "source": "/**\n * @description  FoodForAll upgrade contract\n * @author SijeshP <sijesh.poovalapil@gmail.com>\n * @dev purpose of this contract to demonstrat the capability of upgrading the already deployed base contract and\n * deploy upgraded contract through factory for future. 2 kind of upgrade features has been tested.\n *(ref: upgrade test file) by implementing delegate proxy apprch, we can do both inplace upgrade of  \n * already deployed contract with data migration and deploy upgraded contract through factory for the \n * future purpose.\n */\npragma solidity ^0.4.11;\nimport \"./FfaCampaign.sol\";\n\n\n/**\n * @title FoodForAllCampaign2DataInternal - upgraded version of base contract data contract.\n * @dev Upgrade the contract to implement contract life status ( active/ deactive )\n * aligned storage layout of the base contract and added one more date field\n */\ncontract FoodForAllCampaign2DataInternal is FoodForAllCampaignDataInternal {\n    bool internal contractLifeStatus;  \n}\n\n\n/**\n * @title FoodForAllCampaign2Proxy - upgraded version of base contract initialisation logic\n * @dev Upgrade the contract to implement revised logic\n */\ncontract FoodForAllCampaign2Proxy is FoodForAllCampaignProxy, FoodForAllCampaign2DataInternal {\n    constructor (\n        address _masterContractAddr, \n        address _contractOwner,\n        address _requesterAddress,\n        string _requesterName, \n        uint _quantity, \n        uint _deliverytime, \n        string _deliveryPointContactNo, \n        string _locationAddr,\n        uint _campaingIndex\n    )\n        public \n        FoodForAllCampaignProxy (\n            _masterContractAddr, \n            _contractOwner,\n            _requesterAddress,\n            _requesterName, \n            _quantity, \n            _deliverytime, \n            _deliveryPointContactNo, \n            _locationAddr,\n            _campaingIndex\n        )\n\n    {\n        // set contract is active. Once the food is delivererd set status to false\n        contractLifeStatus = true;\n    }\n}\n\n/**\n * @title FoodForAllCampaign2 - upgraded version of base contract main function logic\n * @dev Upgrade the contract to implement revised logic\n */\ncontract FoodForAllCampaign2 is FoodForAllCampaign,FoodForAllCampaign2DataInternal {\n    \n    // function for changing contract status\n    function makeContractInactive() \n        public \n        onlyUpgradeOwner()\n    {\n        require(contractLifeStatus,\"Contract should be active \");\n        contractLifeStatus = false;\n    }\n    \n    // updating the base contract logic with newely avialble parameter.\n    function contributeByProduceFood (string _producerName) public {\n        require(contractLifeStatus,\"Contract should be active \");\n        super.contributeByProduceFood(_producerName);\n    }\n\n    function getContractLifeStatus() public view returns(bool) {\n        return contractLifeStatus;\n    }\n\n}\n\n/**\n * @title FoodForAllCampaign2 - upgraded version of base contract main function logic\n * @dev update interface describes how storage should be migrated from a FoodForAllCampaign\n * compatable to data set to FoodForAllCampaign2 \n */\ncontract FoodForAllCampaign2Update is\n    FoodForAllCampaignDataInternal,\n    FoodForAllCampaign2DataInternal,\n    Update\n{\n    FoodForAllCampaign internal ffaCampaign;\n    FoodForAllCampaign2 internal ffaCampaign2;\n\n    // construct sets old and upgrade versions of the contract.\n    constructor(FoodForAllCampaign _ffaCampaign, FoodForAllCampaign2 _ffaCampaign2)\n        public\n        ProxyOwnableData(0)\n    {\n        ffaCampaign = _ffaCampaign;\n        ffaCampaign2 = _ffaCampaign2;\n    }\n\n    function implementationBefore() external view returns (address)\n    {\n        return ffaCampaign;\n    }\n    \n    function implementationAfter() external view returns (address) {\n        return ffaCampaign2;\n    }\n    \n    // updating the data value in the upgraded contract.\n    function migrateData() external {\n        contractLifeStatus = true;\n    }\n}\n",
  "sourcePath": "/Users/sijeshp/ConsensysAcademy/Code/Projects/projectSubmit/FoodForAll/contracts/UpgradedCampaign.sol",
  "compiler": {
    "name": "solc",
    "version": "0.4.24+commit.e67f0147.Emscripten.clang"
  },
  "schemaVersion": "2.0.0",
  "updatedAt": "2018-08-23T13:34:27.980Z"
}