{
  "contractName": "UpdatableProxyImplementation",
  "abi": [
    {
      "constant": false,
      "inputs": [
        {
          "name": "newupgradeOwner",
          "type": "address"
        }
      ],
      "name": "setOwner",
      "outputs": [],
      "payable": false,
      "stateMutability": "nonpayable",
      "type": "function"
    },
    {
      "constant": false,
      "inputs": [
        {
          "name": "update",
          "type": "address"
        }
      ],
      "name": "updateMasterCopy",
      "outputs": [],
      "payable": false,
      "stateMutability": "nonpayable",
      "type": "function"
    },
    {
      "inputs": [],
      "payable": false,
      "stateMutability": "nonpayable",
      "type": "constructor"
    }
  ],
  "bytecode": "0x608060405234801561001057600080fd5b50600080600160006101000a81548173ffffffffffffffffffffffffffffffffffffffff021916908373ffffffffffffffffffffffffffffffffffffffff16021790555050610495806100646000396000f30060806040526004361061004c576000357c0100000000000000000000000000000000000000000000000000000000900463ffffffff16806313af403514610051578063e9f8f12b14610094575b600080fd5b34801561005d57600080fd5b50610092600480360381019080803573ffffffffffffffffffffffffffffffffffffffff1690602001909291905050506100d7565b005b3480156100a057600080fd5b506100d5600480360381019080803573ffffffffffffffffffffffffffffffffffffffff169060200190929190505050610177565b005b600160009054906101000a900473ffffffffffffffffffffffffffffffffffffffff1673ffffffffffffffffffffffffffffffffffffffff163373ffffffffffffffffffffffffffffffffffffffff1614151561013357600080fd5b80600160006101000a81548173ffffffffffffffffffffffffffffffffffffffff021916908373ffffffffffffffffffffffffffffffffffffffff16021790555050565b600160009054906101000a900473ffffffffffffffffffffffffffffffffffffffff1673ffffffffffffffffffffffffffffffffffffffff163373ffffffffffffffffffffffffffffffffffffffff161415156101d357600080fd5b6000809054906101000a900473ffffffffffffffffffffffffffffffffffffffff1673ffffffffffffffffffffffffffffffffffffffff168173ffffffffffffffffffffffffffffffffffffffff166376b126266040518163ffffffff167c0100000000000000000000000000000000000000000000000000000000028152600401602060405180830381600087803b15801561026f57600080fd5b505af1158015610283573d6000803e3d6000fd5b505050506040513d602081101561029957600080fd5b810190808051906020019092919050505073ffffffffffffffffffffffffffffffffffffffff161415156102cc57600080fd5b806000806101000a81548173ffffffffffffffffffffffffffffffffffffffff021916908373ffffffffffffffffffffffffffffffffffffffff1602179055503073ffffffffffffffffffffffffffffffffffffffff166321ca8f616040518163ffffffff167c0100000000000000000000000000000000000000000000000000000000028152600401600060405180830381600087803b15801561037057600080fd5b505af1158015610384573d6000803e3d6000fd5b505050508073ffffffffffffffffffffffffffffffffffffffff1663140723f06040518163ffffffff167c0100000000000000000000000000000000000000000000000000000000028152600401602060405180830381600087803b1580156103ec57600080fd5b505af1158015610400573d6000803e3d6000fd5b505050506040513d602081101561041657600080fd5b81019080805190602001909291905050506000806101000a81548173ffffffffffffffffffffffffffffffffffffffff021916908373ffffffffffffffffffffffffffffffffffffffff160217905550505600a165627a7a7230582042969b104dc68f10c079f80d0b6631ce2bb34c646db9413d802a438e9e7187090029",
  "source": "pragma solidity ^0.4.24;\nimport \"./Proxy.sol\";\nimport \"./ProxyOwnable.sol\";\n\n/** \n * @title Update - Interface\n * This is an interface which will help to upgrade the contract\n * This helps to migrate storage state during an update.\n */\ninterface Update {\n    function implementationBefore() external view returns (address);\n    function implementationAfter() external view returns (address);\n    function migrateData() external;\n}\n\n//Data keeps seperate for inheritance - data and logic sepration for upgradability\ncontract UpdatableProxyData is ProxyData, ProxyOwnableData {}\n\n// Implementes Update interface, upgraded the contract and migrate the data from old contract\ncontract UpdatableProxyShared is ProxyData, ProxyOwnable {\n    \n    function updateMasterCopy(Update update)\n        public\n        onlyUpgradeOwner\n    {\n        //masterCopy = newMasterCopy;\n        require(update.implementationBefore() == masterCopy);\n        masterCopy = update;\n        Update(this).migrateData();\n        masterCopy = update.implementationAfter();\n\n    }\n}\n\ncontract UpdatableProxyImplementation is UpdatableProxyShared {\n    constructor() public ProxyOwnableData(0) {}\n}",
  "sourcePath": "/Users/sijeshp/ConsensysAcademy/Code/Projects/projectSubmit/FoodForAll/contracts/utils/UpdatableProxy.sol",
  "compiler": {
    "name": "solc",
    "version": "0.4.24+commit.e67f0147.Emscripten.clang"
  },
  "schemaVersion": "2.0.0",
  "updatedAt": "2018-08-23T13:34:27.983Z"
}