{
  "contractName": "UserMgmt",
  "abi": [
    {
      "constant": false,
      "inputs": [],
      "name": "unpause",
      "outputs": [],
      "payable": false,
      "stateMutability": "nonpayable",
      "type": "function"
    },
    {
      "constant": true,
      "inputs": [],
      "name": "paused",
      "outputs": [
        {
          "name": "",
          "type": "bool"
        }
      ],
      "payable": false,
      "stateMutability": "view",
      "type": "function"
    },
    {
      "constant": false,
      "inputs": [],
      "name": "pause",
      "outputs": [],
      "payable": false,
      "stateMutability": "nonpayable",
      "type": "function"
    },
    {
      "constant": true,
      "inputs": [],
      "name": "owner",
      "outputs": [
        {
          "name": "",
          "type": "address"
        }
      ],
      "payable": false,
      "stateMutability": "view",
      "type": "function"
    },
    {
      "constant": false,
      "inputs": [
        {
          "name": "newOwner",
          "type": "address"
        }
      ],
      "name": "transferOwnership",
      "outputs": [],
      "payable": false,
      "stateMutability": "nonpayable",
      "type": "function"
    },
    {
      "anonymous": false,
      "inputs": [
        {
          "indexed": true,
          "name": "userAddress",
          "type": "address"
        },
        {
          "indexed": false,
          "name": "userName",
          "type": "bytes32"
        },
        {
          "indexed": false,
          "name": "userEmail",
          "type": "bytes32"
        },
        {
          "indexed": false,
          "name": "index",
          "type": "uint256"
        }
      ],
      "name": "LogNewUser",
      "type": "event"
    },
    {
      "anonymous": false,
      "inputs": [
        {
          "indexed": true,
          "name": "userAddress",
          "type": "address"
        },
        {
          "indexed": false,
          "name": "userName",
          "type": "bytes32"
        },
        {
          "indexed": false,
          "name": "userEmail",
          "type": "bytes32"
        },
        {
          "indexed": false,
          "name": "index",
          "type": "uint256"
        }
      ],
      "name": "LogUpdateUser",
      "type": "event"
    },
    {
      "anonymous": false,
      "inputs": [
        {
          "indexed": true,
          "name": "userAddress",
          "type": "address"
        },
        {
          "indexed": false,
          "name": "index",
          "type": "uint256"
        }
      ],
      "name": "LogDeleteUser",
      "type": "event"
    },
    {
      "anonymous": false,
      "inputs": [],
      "name": "Pause",
      "type": "event"
    },
    {
      "anonymous": false,
      "inputs": [],
      "name": "Unpause",
      "type": "event"
    },
    {
      "anonymous": false,
      "inputs": [
        {
          "indexed": true,
          "name": "previousOwner",
          "type": "address"
        },
        {
          "indexed": true,
          "name": "newOwner",
          "type": "address"
        }
      ],
      "name": "OwnershipTransferred",
      "type": "event"
    },
    {
      "constant": false,
      "inputs": [
        {
          "name": "_userName",
          "type": "bytes32"
        },
        {
          "name": "_userEmail",
          "type": "bytes32"
        },
        {
          "name": "_userPhoneNo",
          "type": "bytes32"
        },
        {
          "name": "_avatarIpfsHash",
          "type": "bytes32"
        }
      ],
      "name": "userSignup",
      "outputs": [
        {
          "name": "success",
          "type": "bool"
        }
      ],
      "payable": false,
      "stateMutability": "nonpayable",
      "type": "function"
    },
    {
      "constant": false,
      "inputs": [
        {
          "name": "_newName",
          "type": "bytes32"
        },
        {
          "name": "_newEmail",
          "type": "bytes32"
        },
        {
          "name": "_newPhoneNo",
          "type": "bytes32"
        }
      ],
      "name": "userUpdate",
      "outputs": [
        {
          "name": "success",
          "type": "bool"
        }
      ],
      "payable": false,
      "stateMutability": "nonpayable",
      "type": "function"
    },
    {
      "constant": false,
      "inputs": [],
      "name": "deleteUser",
      "outputs": [
        {
          "name": "success",
          "type": "bool"
        }
      ],
      "payable": false,
      "stateMutability": "nonpayable",
      "type": "function"
    },
    {
      "constant": true,
      "inputs": [],
      "name": "userLogin",
      "outputs": [
        {
          "name": "",
          "type": "bytes32"
        }
      ],
      "payable": false,
      "stateMutability": "view",
      "type": "function"
    },
    {
      "constant": false,
      "inputs": [
        {
          "name": "_userName",
          "type": "bytes32"
        }
      ],
      "name": "updateUserName",
      "outputs": [
        {
          "name": "success",
          "type": "bool"
        }
      ],
      "payable": false,
      "stateMutability": "nonpayable",
      "type": "function"
    },
    {
      "constant": false,
      "inputs": [
        {
          "name": "_userEmail",
          "type": "bytes32"
        }
      ],
      "name": "updateUserEmail",
      "outputs": [
        {
          "name": "success",
          "type": "bool"
        }
      ],
      "payable": false,
      "stateMutability": "nonpayable",
      "type": "function"
    },
    {
      "constant": false,
      "inputs": [
        {
          "name": "_userPhoneNo",
          "type": "bytes32"
        }
      ],
      "name": "updateUserPhoneNo",
      "outputs": [
        {
          "name": "success",
          "type": "bool"
        }
      ],
      "payable": false,
      "stateMutability": "nonpayable",
      "type": "function"
    },
    {
      "constant": false,
      "inputs": [
        {
          "name": "_avatarIpfsHash",
          "type": "bytes32"
        }
      ],
      "name": "updateUserAvatar",
      "outputs": [
        {
          "name": "success",
          "type": "bool"
        }
      ],
      "payable": false,
      "stateMutability": "nonpayable",
      "type": "function"
    },
    {
      "constant": true,
      "inputs": [
        {
          "name": "userAddress",
          "type": "address"
        }
      ],
      "name": "getUserSummary",
      "outputs": [
        {
          "name": "",
          "type": "bytes32"
        },
        {
          "name": "",
          "type": "bytes32"
        },
        {
          "name": "",
          "type": "bytes32"
        },
        {
          "name": "",
          "type": "bytes32"
        },
        {
          "name": "",
          "type": "uint256"
        }
      ],
      "payable": false,
      "stateMutability": "view",
      "type": "function"
    },
    {
      "constant": true,
      "inputs": [],
      "name": "getUserIndex",
      "outputs": [
        {
          "name": "",
          "type": "uint256"
        }
      ],
      "payable": false,
      "stateMutability": "view",
      "type": "function"
    },
    {
      "constant": true,
      "inputs": [],
      "name": "getUserCount",
      "outputs": [
        {
          "name": "",
          "type": "uint256"
        }
      ],
      "payable": false,
      "stateMutability": "view",
      "type": "function"
    },
    {
      "constant": true,
      "inputs": [
        {
          "name": "index",
          "type": "uint256"
        }
      ],
      "name": "getUserAddressAtIndex",
      "outputs": [
        {
          "name": "",
          "type": "address"
        }
      ],
      "payable": false,
      "stateMutability": "view",
      "type": "function"
    },
    {
      "constant": true,
      "inputs": [
        {
          "name": "userAddress",
          "type": "address"
        }
      ],
      "name": "getUserName",
      "outputs": [
        {
          "name": "",
          "type": "bytes32"
        }
      ],
      "payable": false,
      "stateMutability": "view",
      "type": "function"
    },
    {
      "constant": true,
      "inputs": [
        {
          "name": "userAddress",
          "type": "address"
        }
      ],
      "name": "getUserEmail",
      "outputs": [
        {
          "name": "",
          "type": "bytes32"
        }
      ],
      "payable": false,
      "stateMutability": "view",
      "type": "function"
    },
    {
      "constant": true,
      "inputs": [
        {
          "name": "userAddress",
          "type": "address"
        }
      ],
      "name": "getUserPhoneNo",
      "outputs": [
        {
          "name": "",
          "type": "bytes32"
        }
      ],
      "payable": false,
      "stateMutability": "view",
      "type": "function"
    },
    {
      "constant": true,
      "inputs": [
        {
          "name": "userAddress",
          "type": "address"
        }
      ],
      "name": "getUserAvatar",
      "outputs": [
        {
          "name": "",
          "type": "bytes32"
        }
      ],
      "payable": false,
      "stateMutability": "view",
      "type": "function"
    }
  ],
  "bytecode": "0x608060405260008060146101000a81548160ff021916908315150217905550336000806101000a81548173ffffffffffffffffffffffffffffffffffffffff021916908373ffffffffffffffffffffffffffffffffffffffff1602179055506130598061006d6000396000f30060806040526004361061011d576000357c0100000000000000000000000000000000000000000000000000000000900463ffffffff168063026ff05e146101225780630907f1d014610151578063235a798e146101b05780632bb2fe4d146101f95780633f4ba83a146102425780634790a62d14610259578063563560f41461028c5780635c975abb146102f157806367bcf64d146103205780636ec0c8aa146103935780638456cb59146103be5780638da5cb5b146103d55780638fbd0c2d1461042c5780639480e948146104bf5780639eaa2b4b1461051e578063a65cbcfc1461058b578063b5cb15f7146105d4578063d84f55ee146105ff578063d9b05f541461065e578063f2fde38b146106a7578063f504c8f9146106ea575b600080fd5b34801561012e57600080fd5b50610137610749565b604051808215151515815260200191505060405180910390f35b34801561015d57600080fd5b50610192600480360381019080803573ffffffffffffffffffffffffffffffffffffffff169060200190929190505050610a7e565b60405180826000191660001916815260200191505060405180910390f35b3480156101bc57600080fd5b506101df6004803603810190808035600019169060200190929190505050610c65565b604051808215151515815260200191505060405180910390f35b34801561020557600080fd5b506102286004803603810190808035600019169060200190929190505050610ef2565b604051808215151515815260200191505060405180910390f35b34801561024e57600080fd5b5061025761117f565b005b34801561026557600080fd5b5061026e61123d565b60405180826000191660001916815260200191505060405180910390f35b34801561029857600080fd5b506102d7600480360381019080803560001916906020019092919080356000191690602001909291908035600019169060200190929190505050611422565b604051808215151515815260200191505060405180910390f35b3480156102fd57600080fd5b506103066117f7565b604051808215151515815260200191505060405180910390f35b34801561032c57600080fd5b50610379600480360381019080803560001916906020019092919080356000191690602001909291908035600019169060200190929190803560001916906020019092919050505061180a565b604051808215151515815260200191505060405180910390f35b34801561039f57600080fd5b506103a8611bfe565b6040518082815260200191505060405180910390f35b3480156103ca57600080fd5b506103d3611de3565b005b3480156103e157600080fd5b506103ea611ea3565b604051808273ffffffffffffffffffffffffffffffffffffffff1673ffffffffffffffffffffffffffffffffffffffff16815260200191505060405180910390f35b34801561043857600080fd5b5061046d600480360381019080803573ffffffffffffffffffffffffffffffffffffffff169060200190929190505050611ec8565b6040518086600019166000191681526020018560001916600019168152602001846000191660001916815260200183600019166000191681526020018281526020019550505050505060405180910390f35b3480156104cb57600080fd5b50610500600480360381019080803573ffffffffffffffffffffffffffffffffffffffff1690602001909291905050506121cd565b60405180826000191660001916815260200191505060405180910390f35b34801561052a57600080fd5b50610549600480360381019080803590602001909291905050506123b4565b604051808273ffffffffffffffffffffffffffffffffffffffff1673ffffffffffffffffffffffffffffffffffffffff16815260200191505060405180910390f35b34801561059757600080fd5b506105ba6004803603810190808035600019169060200190929190505050612592565b604051808215151515815260200191505060405180910390f35b3480156105e057600080fd5b506105e961281f565b6040518082815260200191505060405180910390f35b34801561060b57600080fd5b50610640600480360381019080803573ffffffffffffffffffffffffffffffffffffffff16906020019092919050505061282c565b60405180826000191660001916815260200191505060405180910390f35b34801561066a57600080fd5b5061068d6004803603810190808035600019169060200190929190505050612a13565b604051808215151515815260200191505060405180910390f35b3480156106b357600080fd5b506106e8600480360381019080803573ffffffffffffffffffffffffffffffffffffffff169060200190929190505050612ca0565b005b3480156106f657600080fd5b5061072b600480360381019080803573ffffffffffffffffffffffffffffffffffffffff169060200190929190505050612df5565b60405180826000191660001916815260200191505060405180910390f35b600080600080600280549050141515156107cb576040517f08c379a00000000000000000000000000000000000000000000000000000000081526004018080602001828103825260138152602001807f4e6f20726567697374657265642075736572730000000000000000000000000081525060200191505060405180910390fd5b3373ffffffffffffffffffffffffffffffffffffffff166002600160003373ffffffffffffffffffffffffffffffffffffffff1673ffffffffffffffffffffffffffffffffffffffff1681526020019081526020016000206004015481548110151561083357fe5b9060005260206000200160009054906101000a900473ffffffffffffffffffffffffffffffffffffffff1673ffffffffffffffffffffffffffffffffffffffff161415156108e9576040517f08c379a00000000000000000000000000000000000000000000000000000000081526004018080602001828103825260118152602001807f4e6f7420612076616c696465207573657200000000000000000000000000000081525060200191505060405180910390fd5b600060149054906101000a900460ff1615151561090557600080fd5b6000600280549050111515610982576040517f08c379a00000000000000000000000000000000000000000000000000000000081526004018080602001828103825260118152602001807f696e746567657220756e646572666c6f7700000000000000000000000000000081525060200191505060405180910390fd5b600160003373ffffffffffffffffffffffffffffffffffffffff1673ffffffffffffffffffffffffffffffffffffffff16815260200190815260200160002060040154915060026001600280549050038154811015156109de57fe5b9060005260206000200160009054906101000a900473ffffffffffffffffffffffffffffffffffffffff16905080600283815481101515610a1b57fe5b9060005260206000200160006101000a81548173ffffffffffffffffffffffffffffffffffffffff021916908373ffffffffffffffffffffffffffffffffffffffff1602179055506002805480919060019003610a789190612fdc565b50505090565b60008060028054905014151515610afd576040517f08c379a00000000000000000000000000000000000000000000000000000000081526004018080602001828103825260138152602001807f4e6f20726567697374657265642075736572730000000000000000000000000081525060200191505060405180910390fd5b3373ffffffffffffffffffffffffffffffffffffffff166002600160003373ffffffffffffffffffffffffffffffffffffffff1673ffffffffffffffffffffffffffffffffffffffff16815260200190815260200160002060040154815481101515610b6557fe5b9060005260206000200160009054906101000a900473ffffffffffffffffffffffffffffffffffffffff1673ffffffffffffffffffffffffffffffffffffffff16141515610c1b576040517f08c379a00000000000000000000000000000000000000000000000000000000081526004018080602001828103825260118152602001807f4e6f7420612076616c696465207573657200000000000000000000000000000081525060200191505060405180910390fd5b600160008373ffffffffffffffffffffffffffffffffffffffff1673ffffffffffffffffffffffffffffffffffffffff168152602001908152602001600020600201549050919050565b60008060028054905014151515610ce4576040517f08c379a00000000000000000000000000000000000000000000000000000000081526004018080602001828103825260138152602001807f4e6f20726567697374657265642075736572730000000000000000000000000081525060200191505060405180910390fd5b3373ffffffffffffffffffffffffffffffffffffffff166002600160003373ffffffffffffffffffffffffffffffffffffffff1673ffffffffffffffffffffffffffffffffffffffff16815260200190815260200160002060040154815481101515610d4c57fe5b9060005260206000200160009054906101000a900473ffffffffffffffffffffffffffffffffffffffff1673ffffffffffffffffffffffffffffffffffffffff16141515610e02576040517f08c379a00000000000000000000000000000000000000000000000000000000081526004018080602001828103825260118152602001807f4e6f7420612076616c696465207573657200000000000000000000000000000081525060200191505060405180910390fd5b600060149054906101000a900460ff16151515610e1e57600080fd5b6000600102826000191614151515610e9e576040517f08c379a00000000000000000000000000000000000000000000000000000000081526004018080602001828103825260148152602001807f4e6f7420612076616c696420697066732074616700000000000000000000000081525060200191505060405180910390fd5b81600160003373ffffffffffffffffffffffffffffffffffffffff1673ffffffffffffffffffffffffffffffffffffffff168152602001908152602001600020600301816000191690555060019050919050565b60008060028054905014151515610f71576040517f08c379a00000000000000000000000000000000000000000000000000000000081526004018080602001828103825260138152602001807f4e6f20726567697374657265642075736572730000000000000000000000000081525060200191505060405180910390fd5b3373ffffffffffffffffffffffffffffffffffffffff166002600160003373ffffffffffffffffffffffffffffffffffffffff1673ffffffffffffffffffffffffffffffffffffffff16815260200190815260200160002060040154815481101515610fd957fe5b9060005260206000200160009054906101000a900473ffffffffffffffffffffffffffffffffffffffff1673ffffffffffffffffffffffffffffffffffffffff1614151561108f576040517f08c379a00000000000000000000000000000000000000000000000000000000081526004018080602001828103825260118152602001807f4e6f7420612076616c696465207573657200000000000000000000000000000081525060200191505060405180910390fd5b600060149054906101000a900460ff161515156110ab57600080fd5b600060010282600019161415151561112b576040517f08c379a00000000000000000000000000000000000000000000000000000000081526004018080602001828103825260188152602001807f4e6f7420612076616c69642070686f6e65206e756d626572000000000000000081525060200191505060405180910390fd5b81600160003373ffffffffffffffffffffffffffffffffffffffff1673ffffffffffffffffffffffffffffffffffffffff168152602001908152602001600020600201816000191690555060019050919050565b6000809054906101000a900473ffffffffffffffffffffffffffffffffffffffff1673ffffffffffffffffffffffffffffffffffffffff163373ffffffffffffffffffffffffffffffffffffffff161415156111da57600080fd5b600060149054906101000a900460ff1615156111f557600080fd5b60008060146101000a81548160ff0219169083151502179055507f7805862f689e2f13df9f062ff482ad3ad112aca9e0847911ed832e158c525b3360405160405180910390a1565b600080600280549050141515156112bc576040517f08c379a00000000000000000000000000000000000000000000000000000000081526004018080602001828103825260138152602001807f4e6f20726567697374657265642075736572730000000000000000000000000081525060200191505060405180910390fd5b3373ffffffffffffffffffffffffffffffffffffffff166002600160003373ffffffffffffffffffffffffffffffffffffffff1673ffffffffffffffffffffffffffffffffffffffff1681526020019081526020016000206004015481548110151561132457fe5b9060005260206000200160009054906101000a900473ffffffffffffffffffffffffffffffffffffffff1673ffffffffffffffffffffffffffffffffffffffff161415156113da576040517f08c379a00000000000000000000000000000000000000000000000000000000081526004018080602001828103825260118152602001807f4e6f7420612076616c696465207573657200000000000000000000000000000081525060200191505060405180910390fd5b600160003373ffffffffffffffffffffffffffffffffffffffff1673ffffffffffffffffffffffffffffffffffffffff16815260200190815260200160002060000154905090565b600080600280549050141515156114a1576040517f08c379a00000000000000000000000000000000000000000000000000000000081526004018080602001828103825260138152602001807f4e6f20726567697374657265642075736572730000000000000000000000000081525060200191505060405180910390fd5b3373ffffffffffffffffffffffffffffffffffffffff166002600160003373ffffffffffffffffffffffffffffffffffffffff1673ffffffffffffffffffffffffffffffffffffffff1681526020019081526020016000206004015481548110151561150957fe5b9060005260206000200160009054906101000a900473ffffffffffffffffffffffffffffffffffffffff1673ffffffffffffffffffffffffffffffffffffffff161415156115bf576040517f08c379a00000000000000000000000000000000000000000000000000000000081526004018080602001828103825260118152602001807f4e6f7420612076616c696465207573657200000000000000000000000000000081525060200191505060405180910390fd5b600060149054906101000a900460ff161515156115db57600080fd5b600060010284600019161415151561165b576040517f08c379a00000000000000000000000000000000000000000000000000000000081526004018080602001828103825260158152602001807f4e6f7420612076616c69642075736572206e616d65000000000000000000000081525060200191505060405180910390fd5b83600160003373ffffffffffffffffffffffffffffffffffffffff1673ffffffffffffffffffffffffffffffffffffffff168152602001908152602001600020600001816000191690555082600160003373ffffffffffffffffffffffffffffffffffffffff1673ffffffffffffffffffffffffffffffffffffffff168152602001908152602001600020600101816000191690555081600160003373ffffffffffffffffffffffffffffffffffffffff1673ffffffffffffffffffffffffffffffffffffffff16815260200190815260200160002060020181600019169055503373ffffffffffffffffffffffffffffffffffffffff167f8be02eae6b24fda571218acb6b426b19e7c5d8e32e353288fa7c2b97ea57323f8585600160003373ffffffffffffffffffffffffffffffffffffffff1673ffffffffffffffffffffffffffffffffffffffff168152602001908152602001600020600401546040518084600019166000191681526020018360001916600019168152602001828152602001935050505060405180910390a2600190509392505050565b600060149054906101000a900460ff1681565b600080600102600160003373ffffffffffffffffffffffffffffffffffffffff1673ffffffffffffffffffffffffffffffffffffffff16815260200190815260200160002060000154600019161415156118cc576040517f08c379a000000000000000000000000000000000000000000000000000000000815260040180806020018281038252601a8152602001807f53686f756c64206e6f7420626520612076616c6964207573657200000000000081525060200191505060405180910390fd5b600060149054906101000a900460ff161515156118e857600080fd5b6000600102856000191614151515611968576040517f08c379a00000000000000000000000000000000000000000000000000000000081526004018080602001828103825260158152602001807f4e6f7420612076616c69642075736572206e616d65000000000000000000000081525060200191505060405180910390fd5b84600160003373ffffffffffffffffffffffffffffffffffffffff1673ffffffffffffffffffffffffffffffffffffffff168152602001908152602001600020600001816000191690555083600160003373ffffffffffffffffffffffffffffffffffffffff1673ffffffffffffffffffffffffffffffffffffffff168152602001908152602001600020600101816000191690555082600160003373ffffffffffffffffffffffffffffffffffffffff1673ffffffffffffffffffffffffffffffffffffffff168152602001908152602001600020600201816000191690555081600160003373ffffffffffffffffffffffffffffffffffffffff1673ffffffffffffffffffffffffffffffffffffffff1681526020019081526020016000206003018160001916905550600160023390806001815401808255809150509060018203906000526020600020016000909192909190916101000a81548173ffffffffffffffffffffffffffffffffffffffff021916908373ffffffffffffffffffffffffffffffffffffffff16021790555003600160003373ffffffffffffffffffffffffffffffffffffffff1673ffffffffffffffffffffffffffffffffffffffff168152602001908152602001600020600401819055503373ffffffffffffffffffffffffffffffffffffffff167fc9368b11812b03e4dfbe2fe5f476f2e874d372ef6523964bc8f79f0e2af4cf7f8686600160003373ffffffffffffffffffffffffffffffffffffffff1673ffffffffffffffffffffffffffffffffffffffff168152602001908152602001600020600401546040518084600019166000191681526020018360001916600019168152602001828152602001935050505060405180910390a260019050949350505050565b60008060028054905014151515611c7d576040517f08c379a00000000000000000000000000000000000000000000000000000000081526004018080602001828103825260138152602001807f4e6f20726567697374657265642075736572730000000000000000000000000081525060200191505060405180910390fd5b3373ffffffffffffffffffffffffffffffffffffffff166002600160003373ffffffffffffffffffffffffffffffffffffffff1673ffffffffffffffffffffffffffffffffffffffff16815260200190815260200160002060040154815481101515611ce557fe5b9060005260206000200160009054906101000a900473ffffffffffffffffffffffffffffffffffffffff1673ffffffffffffffffffffffffffffffffffffffff16141515611d9b576040517f08c379a00000000000000000000000000000000000000000000000000000000081526004018080602001828103825260118152602001807f4e6f7420612076616c696465207573657200000000000000000000000000000081525060200191505060405180910390fd5b600160003373ffffffffffffffffffffffffffffffffffffffff1673ffffffffffffffffffffffffffffffffffffffff16815260200190815260200160002060040154905090565b6000809054906101000a900473ffffffffffffffffffffffffffffffffffffffff1673ffffffffffffffffffffffffffffffffffffffff163373ffffffffffffffffffffffffffffffffffffffff16141515611e3e57600080fd5b600060149054906101000a900460ff16151515611e5a57600080fd5b6001600060146101000a81548160ff0219169083151502179055507f6985a02210a168e66602d3235cb6db0e70f92b3ba4d376a33c0f3d9434bff62560405160405180910390a1565b6000809054906101000a900473ffffffffffffffffffffffffffffffffffffffff1681565b60008060008060008060028054905014151515611f4d576040517f08c379a00000000000000000000000000000000000000000000000000000000081526004018080602001828103825260138152602001807f4e6f20726567697374657265642075736572730000000000000000000000000081525060200191505060405180910390fd5b3373ffffffffffffffffffffffffffffffffffffffff166002600160003373ffffffffffffffffffffffffffffffffffffffff1673ffffffffffffffffffffffffffffffffffffffff16815260200190815260200160002060040154815481101515611fb557fe5b9060005260206000200160009054906101000a900473ffffffffffffffffffffffffffffffffffffffff1673ffffffffffffffffffffffffffffffffffffffff1614151561206b576040517f08c379a00000000000000000000000000000000000000000000000000000000081526004018080602001828103825260118152602001807f4e6f7420612076616c696465207573657200000000000000000000000000000081525060200191505060405180910390fd5b600160003373ffffffffffffffffffffffffffffffffffffffff1673ffffffffffffffffffffffffffffffffffffffff16815260200190815260200160002060000154600160003373ffffffffffffffffffffffffffffffffffffffff1673ffffffffffffffffffffffffffffffffffffffff16815260200190815260200160002060010154600160003373ffffffffffffffffffffffffffffffffffffffff1673ffffffffffffffffffffffffffffffffffffffff16815260200190815260200160002060020154600160003373ffffffffffffffffffffffffffffffffffffffff1673ffffffffffffffffffffffffffffffffffffffff16815260200190815260200160002060030154600160003373ffffffffffffffffffffffffffffffffffffffff1673ffffffffffffffffffffffffffffffffffffffff168152602001908152602001600020600401549450945094509450945091939590929450565b6000806002805490501415151561224c576040517f08c379a00000000000000000000000000000000000000000000000000000000081526004018080602001828103825260138152602001807f4e6f20726567697374657265642075736572730000000000000000000000000081525060200191505060405180910390fd5b3373ffffffffffffffffffffffffffffffffffffffff166002600160003373ffffffffffffffffffffffffffffffffffffffff1673ffffffffffffffffffffffffffffffffffffffff168152602001908152602001600020600401548154811015156122b457fe5b9060005260206000200160009054906101000a900473ffffffffffffffffffffffffffffffffffffffff1673ffffffffffffffffffffffffffffffffffffffff1614151561236a576040517f08c379a00000000000000000000000000000000000000000000000000000000081526004018080602001828103825260118152602001807f4e6f7420612076616c696465207573657200000000000000000000000000000081525060200191505060405180910390fd5b600160008373ffffffffffffffffffffffffffffffffffffffff1673ffffffffffffffffffffffffffffffffffffffff168152602001908152602001600020600101549050919050565b60008060028054905014151515612433576040517f08c379a00000000000000000000000000000000000000000000000000000000081526004018080602001828103825260138152602001807f4e6f20726567697374657265642075736572730000000000000000000000000081525060200191505060405180910390fd5b3373ffffffffffffffffffffffffffffffffffffffff166002600160003373ffffffffffffffffffffffffffffffffffffffff1673ffffffffffffffffffffffffffffffffffffffff1681526020019081526020016000206004015481548110151561249b57fe5b9060005260206000200160009054906101000a900473ffffffffffffffffffffffffffffffffffffffff1673ffffffffffffffffffffffffffffffffffffffff16141515612551576040517f08c379a00000000000000000000000000000000000000000000000000000000081526004018080602001828103825260118152602001807f4e6f7420612076616c696465207573657200000000000000000000000000000081525060200191505060405180910390fd5b60028281548110151561256057fe5b9060005260206000200160009054906101000a900473ffffffffffffffffffffffffffffffffffffffff169050919050565b60008060028054905014151515612611576040517f08c379a00000000000000000000000000000000000000000000000000000000081526004018080602001828103825260138152602001807f4e6f20726567697374657265642075736572730000000000000000000000000081525060200191505060405180910390fd5b3373ffffffffffffffffffffffffffffffffffffffff166002600160003373ffffffffffffffffffffffffffffffffffffffff1673ffffffffffffffffffffffffffffffffffffffff1681526020019081526020016000206004015481548110151561267957fe5b9060005260206000200160009054906101000a900473ffffffffffffffffffffffffffffffffffffffff1673ffffffffffffffffffffffffffffffffffffffff1614151561272f576040517f08c379a00000000000000000000000000000000000000000000000000000000081526004018080602001828103825260118152602001807f4e6f7420612076616c696465207573657200000000000000000000000000000081525060200191505060405180910390fd5b600060149054906101000a900460ff1615151561274b57600080fd5b60006001028260001916141515156127cb576040517f08c379a00000000000000000000000000000000000000000000000000000000081526004018080602001828103825260168152602001807f4e6f7420612076616c696420656d61696c206e616d650000000000000000000081525060200191505060405180910390fd5b81600160003373ffffffffffffffffffffffffffffffffffffffff1673ffffffffffffffffffffffffffffffffffffffff168152602001908152602001600020600101816000191690555060019050919050565b6000600280549050905090565b600080600280549050141515156128ab576040517f08c379a00000000000000000000000000000000000000000000000000000000081526004018080602001828103825260138152602001807f4e6f20726567697374657265642075736572730000000000000000000000000081525060200191505060405180910390fd5b3373ffffffffffffffffffffffffffffffffffffffff166002600160003373ffffffffffffffffffffffffffffffffffffffff1673ffffffffffffffffffffffffffffffffffffffff1681526020019081526020016000206004015481548110151561291357fe5b9060005260206000200160009054906101000a900473ffffffffffffffffffffffffffffffffffffffff1673ffffffffffffffffffffffffffffffffffffffff161415156129c9576040517f08c379a00000000000000000000000000000000000000000000000000000000081526004018080602001828103825260118152602001807f4e6f7420612076616c696465207573657200000000000000000000000000000081525060200191505060405180910390fd5b600160008373ffffffffffffffffffffffffffffffffffffffff1673ffffffffffffffffffffffffffffffffffffffff168152602001908152602001600020600001549050919050565b60008060028054905014151515612a92576040517f08c379a00000000000000000000000000000000000000000000000000000000081526004018080602001828103825260138152602001807f4e6f20726567697374657265642075736572730000000000000000000000000081525060200191505060405180910390fd5b3373ffffffffffffffffffffffffffffffffffffffff166002600160003373ffffffffffffffffffffffffffffffffffffffff1673ffffffffffffffffffffffffffffffffffffffff16815260200190815260200160002060040154815481101515612afa57fe5b9060005260206000200160009054906101000a900473ffffffffffffffffffffffffffffffffffffffff1673ffffffffffffffffffffffffffffffffffffffff16141515612bb0576040517f08c379a00000000000000000000000000000000000000000000000000000000081526004018080602001828103825260118152602001807f4e6f7420612076616c696465207573657200000000000000000000000000000081525060200191505060405180910390fd5b600060149054906101000a900460ff16151515612bcc57600080fd5b6000600102826000191614151515612c4c576040517f08c379a00000000000000000000000000000000000000000000000000000000081526004018080602001828103825260158152602001807f4e6f7420612076616c69642075736572206e616d65000000000000000000000081525060200191505060405180910390fd5b81600160003373ffffffffffffffffffffffffffffffffffffffff1673ffffffffffffffffffffffffffffffffffffffff168152602001908152602001600020600001816000191690555060019050919050565b6000809054906101000a900473ffffffffffffffffffffffffffffffffffffffff1673ffffffffffffffffffffffffffffffffffffffff163373ffffffffffffffffffffffffffffffffffffffff16141515612cfb57600080fd5b600073ffffffffffffffffffffffffffffffffffffffff168173ffffffffffffffffffffffffffffffffffffffff1614151515612d3757600080fd5b8073ffffffffffffffffffffffffffffffffffffffff166000809054906101000a900473ffffffffffffffffffffffffffffffffffffffff1673ffffffffffffffffffffffffffffffffffffffff167f8be0079c531659141344cd1fd0a4f28419497f9722a3daafe3b4186f6b6457e060405160405180910390a3806000806101000a81548173ffffffffffffffffffffffffffffffffffffffff021916908373ffffffffffffffffffffffffffffffffffffffff16021790555050565b60008060028054905014151515612e74576040517f08c379a00000000000000000000000000000000000000000000000000000000081526004018080602001828103825260138152602001807f4e6f20726567697374657265642075736572730000000000000000000000000081525060200191505060405180910390fd5b3373ffffffffffffffffffffffffffffffffffffffff166002600160003373ffffffffffffffffffffffffffffffffffffffff1673ffffffffffffffffffffffffffffffffffffffff16815260200190815260200160002060040154815481101515612edc57fe5b9060005260206000200160009054906101000a900473ffffffffffffffffffffffffffffffffffffffff1673ffffffffffffffffffffffffffffffffffffffff16141515612f92576040517f08c379a00000000000000000000000000000000000000000000000000000000081526004018080602001828103825260118152602001807f4e6f7420612076616c696465207573657200000000000000000000000000000081525060200191505060405180910390fd5b600160008373ffffffffffffffffffffffffffffffffffffffff1673ffffffffffffffffffffffffffffffffffffffff168152602001908152602001600020600301549050919050565b815481835581811115613003578183600052602060002091820191016130029190613008565b5b505050565b61302a91905b8082111561302657600081600090555060010161300e565b5090565b905600a165627a7a723058206622ddb20269635625d1ed76ccac86d8218a9aa2e40e5b1486ad9613389076f10029",
  "source": "/**\n * @description  User manage functionalities\n * @author SijeshP <sijesh.poovalapil@gmail.com>\n * @dev The purpose of the UserMgmt contract is to implement the user control\n * functionalities. Maintaining the user profile will help the project to handle the \n * rate the user involvment and provide feedback. Inplimened emergency stop for user creation\n * updation and deletion.\n */\n\npragma solidity ^0.4.24;\nimport \"zeppelin/contracts/lifecycle/Pausable.sol\";\n\n\n/** @title UserMgmt \n *  @dev The conract implemented user creation,update,retrive and delete functionalities.\n */\ncontract UserMgmt is Pausable { \n\n   // Struct to manage user profile and userId is used to implement Mapping iterator \n    struct UserData {\n        bytes32 userName;\n        bytes32 userEmail;\n        bytes32 userPhoneNo;\n        bytes32 avatarIpfsHash;\n        uint userId;\n    }\n\n    // Map the address to User profile \n    mapping(address => UserData) private  users;\n    // unordered list to implement mapping iterator pattern.\n    address[] private userIndex;\n    \n    // event for user creation, updation and deletion.\n    event LogNewUser   (address indexed userAddress, bytes32 userName, bytes32 userEmail, uint index);\n    event LogUpdateUser(address indexed userAddress, bytes32 userName, bytes32 userEmail, uint index);\n    event LogDeleteUser(address indexed userAddress, uint index);\n  \n    // restriction logic to access only for registered user.\n    modifier onlyValidUser() {\n        require(userIndex.length != 0,\"No registered users\");\n        require((userIndex[users[msg.sender].userId] == msg.sender), \"Not a valide user\");\n        _;\n    }\n\n    // restricted access for non- registered user , with out setting important user info.\n    modifier onlyNonUser() {\n        require((users[msg.sender].userName == 0x0),\"Should not be a valid user\");\n        _;\n    }\n\n    /** \n     * @dev The func implemented user create new user.Restricted to non-registered user.\n     * @param _userName - new user name \n     * @param _userEmail - email of the user will help to contract user \n     * @param _userPhoneNo - phone no. will help to contract user \n     * @param _avatarIpfsHash -  profile pic (stored in IPFS)\n     */\n    function userSignup( \n        bytes32 _userName,\n        bytes32 _userEmail,\n        bytes32 _userPhoneNo,\n        bytes32 _avatarIpfsHash\n    )\n        public\n        onlyNonUser()\n        whenNotPaused()\n        returns(bool success)\n    {\n        require (_userName != 0x0,\"Not a valid user name\");\n        users[msg.sender].userName = _userName;\n        users[msg.sender].userEmail = _userEmail;\n        users[msg.sender].userPhoneNo = _userPhoneNo;\n        users[msg.sender].avatarIpfsHash = _avatarIpfsHash; \n        users[msg.sender].userId = userIndex.push(msg.sender)-1;\n        emit LogNewUser(msg.sender,_userName,_userEmail,users[msg.sender].userId);\n        return true;\n    }\n\n   /** \n     * @dev The func implemented user updation.Restricted to registered user.\n     * @param _newName - new user name \n     * @param _newEmail - email of the user will help to contract user \n     * @param _newPhoneNo - phone no. will help to contract user \n     */\n    function userUpdate(\n        bytes32 _newName, \n        bytes32 _newEmail, \n        bytes32 _newPhoneNo\n    ) \n        public\n        onlyValidUser()\n        whenNotPaused()\n        returns(bool success) \n    {\n        require (_newName != 0x0,\"Not a valid user name\");\n        users[msg.sender].userName = _newName;\n        users[msg.sender].userEmail = _newEmail;\n        users[msg.sender].userPhoneNo = _newPhoneNo;\n        emit LogUpdateUser(msg.sender,_newName,_newEmail,users[msg.sender].userId);\n        return true;\n    }\n\n    /** \n     * @dev The func implemented user updation.Restricted to registered user.\n     * @return success  - deletion success or failure.\n     */\n    function deleteUser()\n        public\n        onlyValidUser()\n        whenNotPaused()\n        returns (bool success)\n    {\n        require(userIndex.length>0,\"integer underflow\");\n        uint indexToDelete = users[msg.sender].userId;\n        address recordToMove = userIndex[userIndex.length-1];\n        userIndex[indexToDelete] = recordToMove;\n        userIndex.length--;\n    }\n\n    /** \n     * @dev The conract implemented to retrive the user info.Restricted to registered user.\n     * @return username  - retrive the user name \n     */\n    function userLogin()\n        public \n        view\n        onlyValidUser()\n        returns(bytes32)\n    {\n        return users[msg.sender].userName;\n    }\n\n    // ------- /Update functions ------------\n\n    function updateUserName(\n        bytes32 _userName\n    )\n        public\n        onlyValidUser()\n        whenNotPaused()\n        returns(bool success)\n    {\n        require (_userName != 0x0,\"Not a valid user name\");\n        users[msg.sender].userName = _userName;\n        return true;\n    }\n\n    function updateUserEmail(\n        bytes32 _userEmail\n    )\n        public\n        onlyValidUser()\n        whenNotPaused()\n        returns(bool success)\n    {\n        require (_userEmail != 0x0,\"Not a valid email name\");\n        users[msg.sender].userEmail = _userEmail;\n        return true;\n    }\n    \n    function updateUserPhoneNo(\n        bytes32 _userPhoneNo\n    )\n        public\n        onlyValidUser()\n        whenNotPaused()\n        returns(bool success)\n    {\n        require (_userPhoneNo != 0x0,\"Not a valid phone number\");\n        users[msg.sender].userPhoneNo = _userPhoneNo;\n        return true;\n    }\n    \n    function updateUserAvatar(\n        bytes32 _avatarIpfsHash\n    )\n        public\n        onlyValidUser()\n        whenNotPaused()\n        returns(bool success)\n    {\n        \n        require (_avatarIpfsHash != 0x0,\"Not a valid ipfs tag\");\n        users[msg.sender].avatarIpfsHash = _avatarIpfsHash;\n        return true;\n    }\n\n    // ----  helper function (Get the user info)------------\n\n    function getUserSummary(\n        address userAddress\n    )\n        public\n        view\n        onlyValidUser()\n        returns(\n            bytes32,\n            bytes32,\n            bytes32,\n            bytes32,\n            uint\n        )\n    {\n        return (\n            users[msg.sender].userName, \n            users[msg.sender].userEmail,\n            users[msg.sender].userPhoneNo,\n            users[msg.sender].avatarIpfsHash, \n            users[msg.sender].userId\n        ); \n    }\n    \n    function getUserIndex()\n        public\n        view\n        onlyValidUser()\n        returns(uint)\n    {\n        return users[msg.sender].userId ;\n    }\n\n    function getUserCount()\n        public \n        view\n        returns(uint)\n    {\n        return userIndex.length;\n    }\n\n    function getUserAddressAtIndex(\n        uint index\n    )\n        public\n        view\n        onlyValidUser()\n        returns(address)\n    {\n        return userIndex[index];\n    }\n\n    function getUserName(\n        address userAddress\n    )\n        public \n        view\n        onlyValidUser()\n        returns(bytes32)\n    {\n        return users[userAddress].userName;\n    }\n    \n    function getUserEmail(\n        address userAddress\n    )\n        public \n        view\n        onlyValidUser()\n        returns(bytes32)\n    {\n        return users[userAddress].userEmail;\n    }\n\n    function getUserPhoneNo(\n        address userAddress\n    )\n        public \n        view\n        onlyValidUser()\n        returns(bytes32)\n    {\n        return users[userAddress].userPhoneNo;\n    }\n\n    function getUserAvatar(\n        address userAddress\n    )\n        public \n        view\n        onlyValidUser()\n        returns(bytes32)\n    {\n        return users[userAddress].avatarIpfsHash;\n    }\n\n}",
  "sourcePath": "/Users/sijeshp/ConsensysAcademy/Code/Projects/projectSubmit/FoodForAll/contracts/UserMgmt.sol",
  "compiler": {
    "name": "solc",
    "version": "0.4.24+commit.e67f0147.Emscripten.clang"
  },
  "schemaVersion": "2.0.0",
  "updatedAt": "2018-08-23T13:34:27.980Z"
}